:020000040802F0
:100000009027002099020208C33402082B2E020810
:10001000C1340208F713020881380208000000000A
:10002000000000000000000000000000C7340208CB
:10003000F913020800000000C5340208C9340208A0
:10004000B3020208B3020208B3020208B3020208B4
:10005000B3020208B3020208B3020208B3020208A4
:10006000B3020208B3020208B3020208B302020894
:10007000B3020208B3020208B3020208B302020884
:10008000B3020208B3020208B3020208B302020874
:10009000B3020208B3020208B3020208B302020864
:1000A000B3020208B3020208B3020208B302020854
:1000B000B3020208B3020208B3020208B302020844
:1000C000B3020208B3020208B3020208B302020834
:1000D000B302020875380208B3020208B30202082C
:1000E000B3020208B3020208B3020208B302020814
:1000F000B3020208B3020208B3020208B302020804
:10010000B3020208B3020208B3020208B3020208F3
:10011000B3020208B3020208B3020208B3020208E3
:10012000B3020208B3020208B3020208B3020208D3
:10013000B30202080000000000000000B302020841
:10014000B3020208B3020208B3020208B3020208B3
:10015000B3020208B3020208B3020208B3020208A3
:10016000B3020208B3020208B3020208B302020893
:10017000B3020208B3020208B30202080000000042
:1001800000000000B30202080000000000000000B0
:10019000B30202080000000000000000B3020208E1
:1001A000000000000000000000000000B302020890
:1001B000B3020208B3020208B3020208B302020843
:1001C000B302020800F002F800F056F80AA090E826
:1001D000000C82448344AAF10107DA4501D100F002
:1001E0004BF8AFF2090EBAE80F0013F0010F18BF79
:1001F000FB1A43F001031847F841000018420000C1
:10020000103A24BF78C878C1FAD8520724BF30C842
:1002100030C144BF04680C60704700000023002414
:1002200000250026103A28BF78C1FBD8520728BF06
:1002300030C148BF0B607047642900F053817529B5
:1002400000F05081782900F08981632900F09F85B2
:10025000732900F0A485002070471FB504F026F82C
:1002600000F07AFE04000020002104F009F8401C90
:1002700060601FBD10B510BD01F048F81146FFF7D2
:10028000ECFF03F0BBFD01F066F803B4FFF7F2FFEB
:1002900003BC01F0A9F8000009488047094800475D
:1002A000FEE7FEE7FEE7FEE7FEE7FEE7FEE7FEE726
:1002B000FEE7FEE704480549054A064B7047000083
:1002C00079350208C50102089021002090270020FE
:1002D000902300209023002053EA020C00F0698054
:1002E0002DE9F04B4FF00006002B1FBFB3FA83F54A
:1002F00003FA05F424FA05F65E4012BF1643B2FA7B
:1003000082F502FA05F4C5F120051EBF22FA05FCAC
:1003100044EA0C04203556EA044C4FEA144418BF52
:10032000641C4FF000084FF00009904271EB030C81
:1003300039D3002919BFB1FA81F701FA07F6B0FAEB
:1003400080F700FA07F6C7F120071EBF20FA07FC66
:1003500046EA0C062037B6FBF4FCA7EB0507103F76
:1003600007F01F0BCBF120060CFA0BFB2CFA06F65C
:1003700044BFB3460026202FA4BF5E464FF0000BBB
:100380005BEA060C08BF4FF0010B19EB0B09ABFB46
:10039000027C48EB0608C01B06FB02CC0BFB03CC1F
:1003A00071EB0C01C1E70B46024641464846BDE8E9
:1003B000F08B13B54FF000004FF00001AFF3008059
:1003C000BDE81C40704700000FB4044910B503AAF3
:1003D000029800F0E9FC10BC5DF814FB100000204E
:1003E0000FB41CB5084B06AA7B44694600900598DB
:1003F00000F0A3FC04460020694600F0B1FC204652
:100400001CBC5DF814FB0000750900000FB47CB53E
:100410000C0009AA009001D02044401E084B7B44E8
:1004200069460190089800F088FC05461CB1002040
:10043000694600F095FC28467CBC5DF814FB000082
:100440004909000070B5044685690068C10601D5F8
:10045000302600E02026C00707D070BDD4E9012176
:1004600030469047206A401C20626D1EF6D570BD54
:1004700070B5044685690078C00707D170BDD4E91E
:10048000012120209047206A401C20626D1EF6D575
:1004900070BD70B50C460546012A05D02878800647
:1004A00000D5EA69002302E0012305E05B1C9342CA
:1004B00002D2E05C0028F9D1A869E618C01AA86148
:1004C000286A184428622846FFF7BCFF04E0D5E9F3
:1004D000012114F8010B9047B442F8D32846FFF7E6
:1004E000C7FF70BD2DE9F04106460024106875294C
:1004F000314616A510D0AFF30080002802DA404242
:1005000013A507E031688A0701D512A502E0490763
:1005100004D511A5012401E0AFF3008000210A22D7
:1005200006F1240709E0B0FBF2FCB0FBF2F302FB9A
:100530001C00303078541846491C0028F3D123465B
:100540002A463046BDE8F04100F098BB00000000AC
:100550002D0000002B0000002000000070B50446B4
:100560000D4621461068AFF300802188090502D5A9
:100570000F4A7A4402E00E4A7A440E32002104F116
:10058000240305E000F00F060009965D5E54491C47
:100590000028F7D120780023000704D5702D02D061
:1005A00009B1022311322046BDE8704000F066BB5D
:1005B000583D00002DE9F05F894604464FF0000ADF
:1005C000DFF874B1FB44C0F820A02046E1688847FA
:1005D000002874D0252806D0D4E901219047206A4C
:1005E000401C2062F1E700265F462046E16888470C
:1005F0002028054607DB312D05D2781910F8200C8C
:1006000008B10643F1E7B00701D526F00406C4F8A7
:100610001CA00027C4F818A02A2D09D0284603F0F2
:1006200040F938B304EB8708303DC8F8185019E09A
:1006300059F8041B204604EB87029161E168884762
:10064000012F054618D1E069002820DA26F020069F
:100650001DE0D8F8180000EB800005EB40003038B2
:10066000C8F818002046E1688847054603F019F9E4
:100670000028EED1012F0AD02E2D08D12046E168A6
:1006800088477F1C0546022F46F02006C4DBA06980
:10069000002803DA404246F00106A061F00701D0CD
:1006A00026F010066C2D0BD0682D09D04C2D39D0BA
:1006B0006A2D35D0742D35D07A2D33D016E038E040
:1006C000E1682F4620468847B842054609D16C2F7D
:1006D00026D04FF48060E1680643204688470546EF
:1006E00004E06C2F1AD04FF4807006430DB3A5F1CF
:1006F0004100192802D8203546F400664A462946AA
:10070000204626604E46FFF797FD80B101280BD0AA
:10071000F61D26F0070000F1080956E74020E4E73F
:100720008020D8E70020D6E706F104094DE72846E7
:1007300052E7206ABDE8F09F2E3D00000FB400B5DF
:100740008DB010A9099000910B904FF0FF300A90E6
:1007500000200C90064878440690064878446A4683
:1007600007900F9909A800F037FB0DB05DF814FB56
:100770009F060000B70600002DE9FF5F4FF000085C
:100780009946144646469169D2E901A7DDF838B08A
:1007900001988847054659EA0B0005D009E0A16990
:1007A0000198761C88470546216A28468847002814
:1007B000F5D1681C03D05FEACA7005D015E04FF090
:1007C000FF3004B0BDE8F09F2068011D2160D0F823
:1007D00000800AE05FEACA7001D108F8015BA169F4
:1007E000761C01987F1E88470546002F1ADD681C7D
:1007F00018D0B9F1000F0DD0E81705EBD060421109
:1008000020F01F0059F822102A1A012090400142BE
:10081000E0D107E0BBF1000FDCD12846216A884710
:100820000028D7D0E16901988847BBF1000F07D1B4
:10083000002E05DD5FEACA7002D1002188F80010A1
:10084000A068B84203DDBBF1000F03D017B16FF011
:100850000100B6E73046B4E770B5064600F00AFA84
:100860000468054630460A22002100F002F82C6098
:1008700070BD2DE9F04791460F468046044600269C
:1008800014F8015B2DB100F0EDF90068405DC00780
:10089000F6D12B2D02D02D2D18D0641E4A46394694
:1008A000204600F0C9FA27B13968A14201D1C7F842
:1008B00000804FF0020471050BD54042002803DD93
:1008C00000F0D8F90460A007BDE8F08746F4806620
:1008D000E4E70028F8DA00F0CDF904606FF000409A
:1008E000F2E7401ECAB210F8011F8A4202D0002966
:1008F000F9D10020704730B505460B462A4613F85B
:10090000014B12F8010B08B1A042F8D01CB100282D
:1009100002D06D1CF1E7284630BD10B5431C02E043
:1009200010F8011B71B18107FAD14FF0013202C8F2
:100930008C1A8C4314EAC211F9D0C01A0A0603D0EB
:10094000C01E10BDC01A10BD0A0401D0801E10BD0B
:100950000902FCD0401E10BDCBB22AB101788B42F7
:1009600003D0401C521EF9D10020704740EA010319
:1009700070B59B072ED14FF00136042A2AD308C840
:1009800010C99D1B9D43121F15EAC61517D0D8B27A
:10099000E1B2401A50EA056110D198B2A1B2401AF2
:1009A00050EA05410AD123F07F4024F07F41401AEC
:1009B00050EA052102D1180EA0EB146070BDA342CD
:1009C000DBD018BA21BA884201D9012070BD4FF09E
:1009D000FF3070BD0AB9002070BD10F8013B11F85E
:1009E000014B63B1A3420AD1521E08D010F8013B5B
:1009F00011F8014B1BB1A34201D1521EEDD1181BBE
:100A000070BD032A40F2308010F0030C00F0158016
:100A100011F8013BBCF1020F624498BF11F801CB01
:100A200000F8013B38BF11F8013BA2F1040298BF66
:100A300000F801CB38BF00F8013B11F0030300F0D0
:100A40006780083AC0F0088051F8043B083A51F832
:100A500004CBA0E80810F5E7121D5CBF51F8043B79
:100A600040F8043BAFF30080D20724BF11F8013BEC
:100A700011F801CB48BF11F8012B24BF00F8013B4E
:100A800000F801CB48BF00F8012B7047431A28BF7C
:100A90009A427FF6B6AF032A1044114440F22680F2
:100AA00010F0030F1EBF11F8013D521E00F8013D6A
:100AB00010F0030F7FF4F6AF11F0030300F01E8275
:100AC000083AC0F00B8051F8043D083A51F804CDC3
:100AD00040F8043D40F804CDFFF7F3BF121D5CBFA2
:100AE00051F8043D40F8043DAFF30080D20724BF25
:100AF00011F8013D11F801CD48BF11F8012C24BFB8
:100B000000F8013D00F801CD48BF00F8012C704706
:100B100010B5203AC0F00B80B1E81850203AA0E898
:100B20001850B1E81850A0E81850BFF4F5AF5FEACC
:100B3000027C24BFB1E81850A0E8185044BF18C97F
:100B400018C0BDE810405FEA827C24BF51F8043B26
:100B500040F8043B08BF7047D20728BF31F8023B7A
:100B600048BF11F8012B28BF20F8023B48BF00F80E
:100B7000012B70474FF000020429C0F0128010F0E2
:100B8000030C00F01B80CCF1040CBCF1020F18BF69
:100B900000F8012BA8BF20F8022BA1EB0C0100F0FC
:100BA0000DB85FEAC17C24BF00F8012B00F8012BCF
:100BB00048BF00F8012B70474FF0000200B5134604
:100BC00094469646203922BFA0E80C50A0E80C506D
:100BD000B1F12001BFF4F7AF090728BFA0E80C501E
:100BE00048BF0CC05DF804EB890028BF40F8042B17
:100BF00008BF704748BF20F8022B11F0804F18BF84
:100C000000F8012B704710B5044610F0030F08BF21
:100C100011F0030F40F015804FF0013E121FC0F29B
:100C20000E8051F8043BA3EB0E0C2CEA030C1CEADB
:100C3000CE1C08BF40F8043BF0D0A1F1040102F142
:100C40000402521E08DB11F8013B002B00F8013BA7
:100C5000F7D11146FFF78EFF204610BD7047704751
:100C60007047000010B500F077F9001D10BD00BFFF
:100C700011360000004870472C2100202DE9F04774
:100C80000D4699469246044600F1240801688806FC
:100C900004D5E06921F01001216000E00120A842A4
:100CA00001DD471B00E00027A1697A1902EB09006A
:100CB000081AA0612078C00602D42046FFF7C2FBC4
:100CC000002608E0D4E901211AF806009047206ABE
:100CD000401C761C20624E45F4DB2078C0060AD505
:100CE0002046FFF7AFFB06E0D4E901213020904712
:100CF000206A401C2062381EA7F10107F4DC07E0DF
:100D0000D4E9012118F805009047206A401C2062B0
:100D1000281EA5F10105F3DC2046FFF7A9FB20788A
:100D2000000602D50220BDE8F0870120FBE70000A5
:100D300001694A1C02610878704700B58FB0CDE99F
:100D400001310021059105497944CDE9031011468F
:100D50006846FFF72FFC0FB000BD0000E5FFFFFF66
:100D60000A6802F8010B0A607047D1E900239A4231
:100D700002D2531C0B601070704710B5436913B159
:100D8000AFF3008001E0FFF784FB012010BD127873
:100D900000F124010A7000224A700122EDE7116877
:100DA0004FF0FF32E9E70000074B70B50D467B447A
:100DB000FFF7C3FF0446284600F0A4FA10B14FF035
:100DC000FF3070BD204670BDEB2C0000026811445E
:100DD0001378016018467047D16005497944516124
:100DE00004497944116200211161114600F0D0B824
:100DF000EDFFFFFF7B010000426842B1016811F87E
:100E0000013B23B1521EC0E9001218467047012170
:100E1000C160881E704742685AB1C368016843B90F
:100E200083688B4205D0491E521CC0E90012002085
:100E300070474FF0FF3070472DE9F05F824615464E
:100E40008B4600270AF10104B9460078302801D00A
:100E50009DB113E014F8010B0127782803D058281E
:100E600001D045B10AE00DB1102D07D1002714F8CB
:100E7000010B102502E0082500E00A250026B046F7
:100E80000EE005FB080005FB06F101271FFA80F8BC
:100E900001EB1046B6F5803F00D3B94614F8010BBC
:100EA000294600F066F80028EBDABBF1000F05D008
:100EB0000FB1641E00E05446CBF80040B9F1000FBA
:100EC00006D0FFF7D7FE02210160C81EBDE8F09FE3
:100ED00048EA0640FAE7431A28BF9A427FF618AE5E
:100EE000104410F0030F11441EBF11F8013D521EB3
:100EF00000F8013D10F0030F7FF4F6AF103AC0F098
:100F00000A8010B531E91850103A20E91850BFF4A2
:100F1000F9AFBDE81040530724BF31E9081020E9BC
:100F2000081044BF51F8043D40F8043D12F0030F8F
:100F300008BF7047D20728BF31F8023D48BF11F8FB
:100F4000012C28BF20F8023D48BF00F8012C704753
:100F5000004870472C210020004870474C21002099
:100F600010B50446FFF77EFE0068005D00F001004A
:100F700010BD3A2800D2303820F02002412A01D397
:100F8000A2F13700884201D34FF0FF3070470000D4
:100F90002DE9F34F4FF0000A0C4656468DB0012064
:100FA0000C9001F10C000B9062690B9801219047A5
:100FB000051E2DD0252D2CD0216A8847C0B162692D
:100FC0000B9801219047216A88470028F7D1626970
:100FD000411E0B98904700E0761CA1690D98884748
:100FE000216A88470028F7D1E1690D988847DBE737
:100FF000A1690D988847A842074601D1761CD3E71E
:10100000E1690D9888477F1C02D1BAF1000F6FD0BB
:101010006BE162690B9800273D46394690472A28C4
:1010200004D162690B98012190470125DFF8D08235
:1010300062690B9801219047A0F130010A290AD278
:101040004745E5DC07EB870100EB4107303FDFD484
:1010500045F01005ECE7E90601D46FF000476C2875
:101060000AD04C2814D0682815D06A280DD07428CE
:101070001CD07A281AD01DE062690B980121904794
:101080006C2802D045F0040514E045F002050DE09F
:1010900045F020050AE062690B9801219047682815
:1010A00002D045F0080505E045F4006562690B983B
:1010B00001219047C4E9015765283DD019DC582823
:1010C0007AD00CDC452837D004DC252826D04128EE
:1010D0009ED131E046282FD0472899D12CE05B28BB
:1010E00077D0612828D063287CD0642823D15AE0A7
:1010F000F6E06F2848D008DC66281DD067281BD092
:10110000692821D06E2816D127E0702845D0732891
:1011100068D0752847D078280DD14DE0A1690D9889
:101120008847252805463FF469AFE1690D9888474F
:101130006D1C3FF46AAFD8E00D9923466A466FF004
:101140000100AFF30080C5E045F0400023464FF0BA
:1011500000026060A80736D43EE0E8077FF447AF9E
:101160002068011D21600068290501D506701BE774
:10117000290701D5068017E7A90703D5F117C0E9AC
:10118000006111E706600FE745F0400023464FF08D
:1011900008026060A80716D41EE040F60E0125EA9A
:1011A0000100606016E045F0400023464FF00A025F
:1011B0006060A80707D40FE045F040006060A80712
:1011C00008D5234610220D996FF00100AFF300807F
:1011D00080E007E0102223460D996FF00100AFF385
:1011E000008077E04FF0000963284F46C8464B4621
:1011F000CB4602D05B2806D038E0E80601D40120B7
:10120000A060012732E06269D4F80CB00B9801218C
:1012100090475E2807D14FF0010949466269D4F82A
:101220000CB00B989047216939B900210A4603ABED
:1012300043F82120491C0829FADBD8B3216949B3B6
:1012400008F1010862690B98012190475D28F4D1EB
:10125000B9F1000F09D0002003A951F82020D24392
:1012600041F82020401C0828F7DB03AB2069002848
:1012700020794FEA40701ED05B462246CDF80080B0
:10128000CDE901970D9900286FF0010020DAAFF346
:1012900000801FE0C11703AA00EBD1614B1121F0C0
:1012A0001F0102EB8302411A1368012088400343A7
:1012B0001360C7E719E00D99224600286FF001007E
:1012C000009702DAAFF3008004E0FFF755FA01E07F
:1012D000AFF3008000280ADA401C06D10C9820B138
:1012E0004FF0FF300FB0BDE8F08F5046FAE7E90746
:1012F00001D10AF1010A064400200C9054E60000D6
:10130000CCCCCC0C007B00F0800070477546FFF71A
:101310001FFEAE4605006946534620F0070085468D
:1013200018B020B5FEF7C6FFBDE820404FF000061C
:101330004FF000074FF000084FF0000B21F00701BD
:10134000AC46ACE8C009ACE8C009ACE8C009ACE800
:10135000C0098D46704710B50446AFF300802046A3
:10136000BDE81040FEF791BF4FF0013C50F8042B50
:1013700051F8043B9A4221D1A2EB0C03934313EAA8
:10138000CC1317D150F8042B51F8043B9A4215D1D5
:10139000A2EB0C03934313EACC130BD150F8042BAC
:1013A00051F8043B9A4209D1A2EB0C03934313EA90
:1013B000CC13DBD04FF00000704700BFD01A01BA49
:1013C000B1FA81F101F0180122FA01F0CB40C1F12C
:1013D0002001DBB2C0B2C01A2CFA01F3D11A91433A
:1013E00011EAC311E6D1704701491820ABBEFEE7F0
:1013F000260002007047FEE7704700000FB430B5CA
:1014000085B00546482209A91448FFF781FB4FF42F
:1014100096740A22214612A002F0BEFE012801D0D5
:1014200011A00FE019A0FEF7CFFF2A461CA16846C5
:10143000FEF7D6FF0A222146684602F0ADFE0128DB
:1014400007D01BA0FEF7C0FF002005B030BC5DF840
:1014500014FB1DA0FEF7B8FF0120F6E7A40800204A
:1014600041540D0A0000000043616E6E6F742063EA
:101470006F6D6D756E69636174652077697468203E
:1014800045535038323636210D0A0000455350205E
:10149000697320776F726B696E670D0A0000000038
:1014A00041542B43574D4F44453D25640D0A0000E0
:1014B00043616E6E6F7420736574205769466920AE
:1014C0006D6F6465210D0A004553502057694669C8
:1014D000206D6F6465207365740D0A0010B588B0C7
:1014E000044602460BA16846FEF77AFF0A224FF433
:1014F0009671684602F050FE0128214605D009A0E9
:10150000FEF762FF002008B010BD0FA0FEF75CFFE1
:101510000120F8E741542B4349504D55583D25646F
:101520000D0A00005B455350383236365D2043616A
:101530006E6E6F7420736574204349504D55583D4D
:101540002564210D0A0000005B45535038323636C1
:101550005D204349504D55582073657420746F20A9
:1015600025640D0A0000000030B58DB00546342119
:101570006846FFF721FB2A4610A16846FEF730FFB8
:101580006846FFF7CAF9C1B241F28833462268467D
:1015900002F026FE0D48806802F08AF9012808D082
:1015A000002429460AA000BFFEF70EFF0DB020461A
:1015B00030BD012429460CA0F6E7000041542B5011
:1015C000494E473D222573220D0A000014000020D9
:1015D00050696E6720746F202573204641494C4541
:1015E00044210D0A0000000050696E6720746F20CE
:1015F00025732053554343455353210D0A000000E2
:1016000070B506464FF400611748FFF7D5FA4FF45E
:10161000FA6364220A2115A002F0E2FD16A1124825
:10162000FFF769F9002817D0C01D04462221FFF7F3
:1016300058F9002810D0051B102D0CD22A4621463F
:101640003046FFF7E0FA002070550D48806802F040
:101650002FF9012801D0002070BD314609A0FEF706
:10166000B3FE012070BD0000EC08002041542B4364
:10167000494653520D0A000053544149502C220050
:10168000140000204D7920436C69656E7420495028
:101690003A2025730D0A00002DE9F0439DB0032781
:1016A0001F4CDDF8909015460E468046002B1DD04D
:1016B000CDF80080CDE901654B461AA2642103A84C
:1016C000FEF7A4FE00974CF2503303A8226AA168EB
:1016D00002F034FD01282B46324649461BD019A0A2
:1016E000FEF772FE00201DB0BDE8F0830097642372
:1016F00022A0A269A16802F021FD012802D023489E
:10170000FEF762FECDE90065434621A2642103A8ED
:10171000FEF77CFED6E725A0FEF756FE0120E2E7A5
:101720001400002041542B43495053544152543D1E
:1017300025642C222573222C222573222C25730D3F
:101740000A0000005B455350383236365F706F72C6
:1017500074436F6E6E6563745D204661696C203DF5
:101760003E206C696E6B49443D25642C20686F7384
:10177000743D25733A25730D0A00000041542B4334
:101780004950434C4F53450D0A0000003C430208AA
:1017900041542B43495053544152543D2225732206
:1017A0002C222573222C25730D0A00005B45535013
:1017B000383236365F706F7274436F6E6E65637465
:1017C0005D20436F6E6E6563746564203D3E206CE2
:1017D000696E6B49443D25642C20686F73743D2508
:1017E000733A25730D0A00002DE9F043814699B044
:1017F000984617460D461D4801F050F81C4E6421CE
:101800006846FFF7D9F9002F2AD02B46424619A186
:101810006846FEF7E5FDC1B264230F22684602F078
:10182000DFFCF06902F044F80446706902F040F809
:101830000443012CE3D1E9B24FF47A7346224846BF
:1018400002F0CEFC0A490122C91C084801F074FAD2
:1018500029460DA0FEF7B8FD19B00120BDE8F083C0
:101860002A4619A16846FEF7BBFDD4E7A40800206C
:101870001400002041542B43495053454E443D250C
:10188000642C25750D0A00005B45535038323636FE
:101890005F73656E644D6573736167655D204D654B
:1018A0007373616765206F662025752062797465A2
:1018B00073207375636365737366756C6C792071DF
:1018C00075657565640D0A0041542B4349505345B5
:1018D0004E443D25750D0A00F0B59BB0184C03250C
:1018E0000F460095D4E902120646642315A002F0C3
:1018F00025FC012803D016A0FEF766FD17E0642141
:1019000001A8FFF759F93B4632461BA101A8FEF793
:1019100067FD009544F6206301A82269A16802F0E2
:101920000DFC012806D0314619A0FEF74DFD002020
:101930001BB0F0BD1FA0FEF747FD0120F8E7000037
:101940001400002041542B43575141500D0A000010
:101950004661696C20746F20646973636F6E6E6595
:1019600063742070726576696F75732057692D46B0
:1019700069210D0A0000000041542B43574A415091
:101980003D222573222C222573220D0A000000001F
:101990004661696C20746F20636F6E6E656374209E
:1019A00057692D46693A20535349443D25730D0A22
:1019B0000000000057692D466920697320636F6E2F
:1019C0006E65637465640D0A00000000002229B191
:1019D00001291AD002291BD04FF440720E490B681E
:1019E00023F440730B600B6813430B600A6822F00A
:1019F000F8020A600A68022303EBC00002430A608F
:101A0000086840F48030086070474FF48072E5E762
:101A10004FF40072E2E70000103C024013480168F6
:101A200089050FD5016821F400710160016841F456
:101A300000610160016821F400610160016841F406
:101A400000710160016849050FD5016821F48061CA
:101A50000160016841F480510160016821F4805106
:101A60000160016841F4806101607047003C024000
:101A700008490A6822F440720A600A6842F00402C7
:101A80000A600A684FF4803343EA002002430A6088
:101A900070470000103C0240064A136823F440736C
:101AA000136013681360136843F00103136001703F
:101AB00070470000103C0240094910B50C6824F43E
:101AC00040740C600C6844F440740C600C6844F082
:101AD00001040C600260BFF36F8F436010BD000013
:101AE000103C0240074A136823F4407313601368E4
:101AF00043F480731360136843F0010313600180A3
:101B000070470000103C0240074A136823F44073FA
:101B10001360136843F400731360136843F0010308
:101B20001360016070470000103C02401C490868C7
:101B3000C2061C4805D5C26942F01002C2611022DB
:101B40000A600A68920605D5C26942F00802C261BD
:101B500020220A600A68520605D5C26942F00402D2
:101B6000C26140220A600A68120605D5C26942F0C5
:101B70000202C26180220A600A68D20506D5C269E3
:101B800042F00102C2614FF480720A600A68920753
:101B900005D5C26942F02002C26102200860704788
:101BA0000C3C02400C21002070B511490446002075
:101BB000C86100F0B3FA06460E4D09E0601C07D07C
:101BC00024B100F0ABFA801BA04201D9032070BD04
:101BD0002868C003F2D42868C00701D0012028601B
:101BE000286810F4F970F2D0FFF7A0FF012070BD53
:101BF0000C2100200C3C024070B588B00D46064612
:101C000000F04CF804467019401E00F047F80546F5
:101C100000F07AF900220120CDE90220281B401CA7
:101C20000590022001920690049401A902A800F0F8
:101C3000D7F820B100F020F9002008B070BD00F006
:101C40001BF90120F9E7F8B5064615460F4680074F
:101C500001D00020F8BD00F057F9002417E04FF044
:101C6000FF300090201DA84201D8042200E02A1B6A
:101C700039196846FEF7C5FE311900230220009A83
:101C800000F004F910B100F0F7F8E2E7241DAC42CF
:101C9000E5D300F0F1F80120F8BD000012498842B8
:101CA00001D2002070471149884201D201207047BB
:101CB0000F49884201D2022070470E49884201D262
:101CC000032070470C49884201D2042070470B4919
:101CD000884201D2052070470949884201D2062076
:101CE000704707207047000000400008008000088F
:101CF00000C00008000001080000020800000408FD
:101D0000000006082DE9F0410446876D00F006FA50
:101D1000064694F835000025022806D0802060652C
:101D200084F834500120BDE8F0812068016821F07A
:101D3000160101602068416921F080014161206C39
:101D400008B9A06C20B12068016821F00801016089
:101D50002068016821F0010101600CE000F0DEF96B
:101D6000801B052807D920206065032084F83500F2
:101D700084F83450D7E720680068C007EED194F8A3
:101D80005C103F208840B860012084F8350084F85A
:101D900034500020C7E790F83510022903D0802185
:101DA000416501207047052180F835100068016801
:101DB00021F00101016000207047000070B5044669
:101DC00000F0ACF90546601C02D0044800780444D9
:101DD00000F0A4F9401BA042FAD370BD3C000020E3
:101DE0002DE9F047044622480F46017E01290AD01A
:101DF0000121804601764CF250394846FFF7D4FE67
:101E0000020003D02FE00220BDE8F0874FF0FF3042
:101E100038602068174D012801D0A6681CE0207C9E
:101E20006168FFF725FE4846FFF7BEFE02462868B8
:101E300020F00400286014E0217C3046FFF7C6FD46
:101E40004846FFF7B1FE0200286820F0FA0028603B
:101E500001D03E6005E0761CD4E902100844B0428F
:101E6000EAD8FFF7DBFD002188F818101046CBE711
:101E70000C210020103C02400348016841F0004161
:101E80000160002070470000103C02402DE9F0473F
:101E90001B4E05461446307E1F468946012808D051
:101EA000012030764CF250384046FFF77DFE18B1E5
:101EB00014E00220BDE8F0879DB1012D16D0022D5F
:101EC00019D022463B464846FFF7F6FD4046FFF74D
:101ED0006BFE0C490A6822F001020A60002131768B
:101EE000E8E7E1B24846FFF7D7FDEFE7A1B2484681
:101EF000FFF7F8FDEAE721464846FFF705FEE5E76C
:101F00000C210020103C0240074900200A68002AEA
:101F100009DA054A054B0C3A1360054B1360096852
:101F2000002900DA01207047103C02402301674578
:101F3000AB89EFCD2DE9F84FDFF8ACA100220124E9
:101F400003254FF00F090AF1040BAAF1040E00BF9C
:101F50000B6804FA02F63340B3426ED10F7907F0F2
:101F60000307012F01D0022F16D187684FEA4208DC
:101F700005FA08FC27EA0C07D1F80CC00CFA08FC9B
:101F80004CEA070CC0F808C04768B7430E79C6F39F
:101F9000001696403E4346600E79F643B6070AD0D7
:101FA000C6684FEA420C05FA0CF7BE438F6807FA81
:101FB0000CF73743C7600E7906F00306022E10D1E6
:101FC000D60800EB8608D8F8206057074FEAD76C90
:101FD00009FA0CF7BE430F6907FA0CF73743C8F844
:101FE000207006684FEA420C05FA0CF7BE430F79E1
:101FF00007F0030707FA0CF7374307604E6816F43B
:10200000403F6BD0394E376847F4804737603668B9
:1020100022F0030706F480460096354E07EB060CC7
:10202000DCF8086897074FEA177809FA08F7BE4303
:10203000304FB84202D100271FE04FE02E4FB84288
:1020400001D1012719E02D4FB84201D1022714E038
:102050002B4FB84201D103270FE02A4FB84201D1DC
:1020600004270AE0284FB84201D1052705E0274F91
:10207000B84201D1062700E0072707FA08F73743DF
:10208000CCF80878DAF800605746D1F804C09E43CF
:102090005FEACC2C00D51E433E60DBF800605F4653
:1020A000D1F804C09E435FEA8C2C00D51E433E60ED
:1020B000DEF800607746D1F804C09E435FEA8C3CAE
:1020C00000D51E433E60084F083F3E68D1F804C06B
:1020D0009E435FEACC3C00D51E433E60521C102A52
:1020E000FFF436AFBDE8F88F083C014044380240A9
:1020F000003001400000024000040240000802409D
:10210000000C02400010024000140240001802407F
:102110000AB1816170470904FBE70000014880684B
:10212000704700003C00002002488168027811449A
:10213000816070473C0000200B4810B5016841F4F5
:1021400000710160016841F480610160016841F43F
:1021500080710160032000F071F8002000F006F8A3
:1021600000F024F8002010BD003C024070B50D4D79
:1021700004464FF47A712878B1FBF0F00A490968F7
:10218000B1FBF0F000F074FB48B9102C07D200222C
:102190002146501E00F032F800206C6070BD012016
:1021A00070BD00003C000020480000200B4882B0B9
:1021B000016841F480410160006800F480400090B3
:1021C0000648001F016841F080510160006800F07E
:1021D00080500090072002B000F030B84438024030
:1021E000002809DB00F01F02012191404009800016
:1021F00000F1E020C0F8001170470000F0B40E4B71
:102200001B680C46C3F30223C3F10705042D00D954
:102210000425191D072901D2002300E0DB1E012639
:1022200006FA05F1491E214099409E40761E16404F
:102230003143F0BC01F025BB0CED00E0064900F095
:10224000070208684FF6FF03184040EA0220034ADD
:1022500010430860704700000CED00E00000FA0534
:102260002DE9F8431748016841F08051016000688A
:10227000154F00F08050012600903E64FFF74EFF9E
:1022800005464FF47A78114C05E000BFFFF746FF92
:10229000401B40450DD86068C003F7D57E64FFF74A
:1022A0003DFF0546464607E0FFF738FF401BB042BA
:1022B00002D90320BDE8F88360688003F4D50020CC
:1022C000F8E700004038024000000E420070004075
:1022D0002DE9F0470E46050065D0DFF81481D8F8E7
:1022E0000000F7B200F00F00B04207D288F800708B
:1022F000D8F8000000F00F00B04254D128683D4CDF
:10230000810712D5400703D5206840F4E0502060D3
:102310002878000703D5206840F4604020602068DA
:10232000A96820F0F000084320602878C0072DD06D
:10233000304968680839012812D0022813D00328D0
:1023400011D00968890700292DDA216821F00301DD
:1023500001432160FFF7E2FE814641F2883A0EE038
:1023600009688903EFE709688901ECE7FFF7D6FE02
:10237000A0EB0901514502D90320BDE8F087206890
:10238000696800F00C00B0EB810FEFD1D8F80010B5
:10239000404601F00F01B14207D90770006800F014
:1023A0000F00B04201D00120E7E72878400705D5AB
:1023B0002068E96820F4E05008432060287800078E
:1023C00006D52068296920F4604040EAC1002060F9
:1023D00000F038F82168084AC1F30311515CC84085
:1023E0000649086006480068FFF7C0FE0020C4E701
:1023F000003C024008380240B64202084800002073
:10240000400000200448054900680968044AC1F3F7
:102410008221515CC84070474800002008380240C3
:10242000C64202080448054900680968044AC1F325
:102430004231515CC84070474800002008380240D3
:10244000C6420208224810B5006810F00C0221486C
:1024500015D04110042A11D01D4C241F082A0FD07A
:102460000C2A0CD12268236802F03F025B0221D5BE
:102470002068C0F38810A0FB010120E0084610BDD1
:102480002268236802F03F025B0205D52068C0F392
:102490008810A0FB010104E02168C1F38811A1FBB1
:1024A00000010023FDF718FF2168C1F30141491C19
:1024B00049000AE02168C1F38811A1FB0001002353
:1024C000FDF70AFF2168C1F30271B0FBF1F010BD06
:1024D000083802400024F4002DE9F84F04007DD0B4
:1024E000DFF878B32078ABF10407C007A7F1040543
:1024F00050D0DBF800105846C1F3810101290FD0FC
:102500000168C1F38101022902D13968490207D467
:102510000068C0F38100032809D13868400206D55D
:102520002868800336D560680028D8D032E060681B
:10253000B0F5803F10D0B0F5A02F286810D020F45F
:1025400080302860286820F4802028606068A0B16E
:10255000FFF7E4FD06460CE0286840F48030F4E71D
:1025600040F480202860F7E7FFF7D8FD801B64283F
:1025700076D828688003F7D50CE0FFF7CFFD064634
:1025800005E000BFFFF7CAFD801B6428F0D828686B
:102590008003F7D42078DFF8C89280074FF0000A54
:1025A00044D5DBF80010584611F00C0F0FD001682D
:1025B000C1F38101022902D13968490207D50068B7
:1025C000C0F3810003280AD13868400207D4286884
:1025D000800715D5E068012800D111E03AE1E068F4
:1025E000B0B10120C9F80000FFF798FD064604E0ED
:1025F000FFF794FD801B0228BAD828688007F7D51A
:102600002868216920F0F80040EAC10028600DE048
:10261000C9F800A0FFF782FD064604E0FFF77EFD43
:10262000801B02281CD828688007F7D42078000770
:1026300027D5DFF828828B48616908F16C0881B1E1
:1026400001210160FFF76AFD064604E0FFF766FD21
:10265000801B022804D8D8F800008007F6D510E0C7
:1026600089E0C0F800A0FFF759FD064605E000BF6D
:10267000FFF754FD801B02287DD8D8F800008007A2
:10268000F6D42078400769D574484FF000083830F8
:102690000068C0000BD471483830016841F08051A7
:1026A000016000684FF0010800F0805000906E4E0D
:1026B0003068C00511D4306840F480703060FFF796
:1026C0002DFD009006E000BFFFF728FD0099401A9D
:1026D000022850D83068C005F6D5604EA06868362C
:1026E00001280FD00528306810D020F0010030609C
:1026F000306820F004003060A068B8B1FFF70EFD2C
:1027000000900FE0306840F00100F4E740F0040072
:102710003060F7E7FFF702FD0099411A41F2883077
:10272000814264D830688007F4D50EE0FFF7F6FCEC
:10273000009007E0FFF7F2FC0099411A41F288305F
:10274000814254D830688007F4D4B8F1000F05D026
:1027500042483830016821F080510160A069A8B377
:10276000DBF80010C1F38101022947D00228C9F823
:1027700060A005D000E03AE0FFF7D0FC044639E065
:10278000FFF7CCFC064604E0FFF7C8FC801B0228DC
:102790002DD828688001F7D4F4E907010843E168DF
:1027A000324A490802EB0141A26841EA821108431A
:1027B000217C40EA0160217D40EA017038600120FF
:1027C000C9F86000FFF7AAFC044606E044E000BF39
:1027D000FFF7A4FC001B022809D828688001F7D560
:1027E0003AE000BFFFF79AFC001B022802D9032041
:1027F000BDE8F88F28688001F4D42DE00128F7D0D7
:102800003868E26900F48001914223D1226A00F025
:102810003F0191421ED147F6C071626A0140B1EB9F
:10282000821F17D1A26A4FF0FF3300F4403103EB4F
:102830005202B1EB024F0DD194F82C2000F07061E0
:10284000B1EB026F06D194F8301000F0E040B0EB2D
:10285000017F01D00120CBE70020C9E70838024002
:1028600000004742800E4742007000400000FFFF1A
:1028700010B5401EB0F1807F01D3012010BD4FF094
:10288000E02460610F21601700F0FBFF0020A061D1
:1028900007202061002010BD7047704770B50446C6
:1028A00020680C3050E8001F21F4907140E80012BD
:1028B000002AF5D12068143050E8001F21F00101F2
:1028C00040E80012002AF5D1206B012809D12068C8
:1028D0000C3050E8001F21F0100140E80012002ADF
:1028E000F5D1206840694FF0200241064FF000000A
:1028F00015D52168143151E8003F23F0400341E829
:102900000035002DF5D1E16B49B109480865E06B50
:10291000FFF741FA50B1E06B016D884706E0E085B2
:1029200084F8422020632046FFF7B7FF002070BDE7
:102930009935020870470000F8B501680446086838
:10294000CA684B6910F00F0F4FF0000559D003F023
:10295000010602F49077374365D0C10705D0D10551
:1029600003D5616C41F001016164410705D5D907C8
:1029700003D0616C41F002016164810705D5D9077C
:1029800003D0616C41F004016164010707D502F0D6
:102990002001314303D0616C41F008016164616C36
:1029A00000293AD0800604D5900602D5204600F0D2
:1029B00025FE20684069616CC0F38010090700D4CF
:1029C00060B3204600F0F3FD20684069400621D541
:1029D0002068143050E8001F21F0400140E8001248
:1029E000002AF5D1E06BA8B16E490165E06BFFF7F5
:1029F000D2F9002811D0E06B016D01B0BDE8F040C4
:102A0000084783060FD593060DD52046BDE8F8404C
:102A100000F0F4BD2046FFF78DFFF8BD2046FFF71C
:102A200089FF6564F8BD266B2023012E7DD1C60683
:102A30007BD5D60679D508684868009048694FF07C
:102A40000206400641D5E16B086840680004000CAE
:102A5000E8D0A28D8242E5D9E085C869B0F5807FD3
:102A60002DD020680C3050E8001F21F4807140E820
:102A70000012002AF5D12068143050E8001F21F020
:102A8000010140E80012002AF5D12068143050E816
:102A9000001F21F0400140E80012002AF5D184F81F
:102AA0004230256320680C3050E8001F21F01001EF
:102AB00040E80012002AF5D1E06BFFF723F96663C6
:102AC000A08DE18D401A81B22AE0A08DE18D401ADF
:102AD00081B2E08D0028A5D00029A3D022680C3255
:102AE00052E8000F20F4907042E80007002FF5D163
:102AF0002068143050E8002F22F0010240E800273F
:102B0000002FF5D184F84230256320680C3050E85E
:102B1000002F22F0100240E80023002BF5D166635D
:102B20002046FFF7B9FEF8BDFFE705062BD51506D1
:102B300029D594F841002128F5D1A068B0F5805F2F
:102B400001D12069B0B1206A411C2162216800785E
:102B50004860E08C401E0004000CE084E3D1206853
:102B6000C16821F08001C1602068C16841F0400166
:102B7000C160D8E7206A0088C0F308004860206A76
:102B8000801C2062E5E74006CDD55006CBD5CA684B
:102B9000204622F04002CA6084F8413000F044F937
:102BA000C1E700008935020870B5040004D094F82C
:102BB0004100002510B106E0012070BD84F84050AE
:102BC000204600F023F8242084F841002068C168E2
:102BD00021F40051C160204600F072FD20680169B7
:102BE00021F4904101612068416921F02A0141618D
:102BF0002068C16841F40051C1606564202084F8F8
:102C0000410084F842006563002070BD10B586B0B5
:102C1000044614216846FDF7CFFF18492068884212
:102C200029D117480021026842F0100202600068B2
:102C300000F01000059012481438026842F00102BA
:102C40000260006800F0010005904FF4C060009041
:102C50000220CDE90101032003900720049069467A
:102C60000848FFF767F9002211462520FFF7C6FA4A
:102C70002520FFF7B5FA06B010BD00000010014096
:102C800044380240000002402DE9F84F044690F815
:102C900042009A4616460D46202802D00220BDE882
:102CA000F88FB5B1AEB100206064222184F84210E3
:102CB0002063FFF733FAA6858146E685A0684FF4C6
:102CC00080582027404501D1206920B12E4600259B
:102CD00029E00120E3E7002625E04B4600222021E1
:102CE0002046CDF800A000F08CFD18B184F84270A9
:102CF0000320D4E726B1A06840451AD038B108E0D7
:102D000020684068C0F3080025F8020B08E020693D
:102D100078B12068406800F07F0000BF06F8010B22
:102D2000E08D401EE085E08D0028D6D184F8427009
:102D3000B5E720684068F1E790F84230202B01D0D9
:102D40000220704721B11AB10023036300F03EBD99
:102D50000120704730B40A490A4C4A6ACB78A35420
:102D6000521C00234A62B2F5006F00D34B6201226D
:102D70000A704B70024930BCC91CFFF7DDBF000070
:102D800014000020EC1000202DE9F843044690F8D0
:102D90004100984616460D46202802D00220BDE884
:102DA000F88385B17EB100206064212084F8410061
:102DB000FFF7B4F9A6848146E684A0682027B0F521
:102DC000805F02D003E00120E9E7206910B12E46C0
:102DD00000250EE000260CE08021204600F011FDC9
:102DE000A8B9C6B116F8010B21684860E08C401EF6
:102DF000E084E08C4B464FF00002CDF800800028C4
:102E0000EAD14FF04001204600F0FBFC40B184F8CD
:102E100041700320C3E735F8020BC0F30800E3E775
:102E200084F841700020BAE77047FEE72DE9F34FC0
:102E3000F3B00446402162A8FDF7BEFE802142A8FF
:102E4000FDF7BAFE0020ADF8C801FFF767F980462C
:102E50004FF0000B42AB72AA62A9204601F00CF9B8
:102E6000002815D0BDF8C81162A8CDE9000142AB19
:102E700050A24FF4807102A8FDF7C8FA81B2012375
:102E80001A4602A8FEF7B0FC012806D056A08CE036
:102E9000214660A0FDF798FA89E0002643F6982ABB
:102EA0006EE0664C2068002867D0FFF737F980464F
:102EB000BBF1000F19D1042361A26348216801F01E
:102EC000BFF800285CD0604F4FF0010BC51B2D1DD3
:102ED00029465EA0FDF778FA20687919421B38462A
:102EE000FDF7D4FD2068401B20605448564D04680F
:102EF00028E005235FA22146284601F0A1F807003B
:102F000022D03A21FDF7EDFC5FEA000926D02C2102
:102F10003846FDF7E6FC401CFDF79EFC09F1010771
:102F20000090781BA4EB0009009881451AD381B268
:102F3000749B00223846984700983844401B05444B
:102F4000241A0644052CD4D83F48854218D9224675
:102F50002946FDF79BFD3948046011E047A0FDF7C5
:102F600033FAF1E7B9F1000FEED0749B1FFA89F143
:102F70000022384698474E44E6E70520FEF71EFF3C
:102F8000FFF7CCF8A0EB080151458AD301220021BC
:102F9000749B084698473EB1314641A0FDF714FAAC
:102FA000012075B0BDE8F08F49A0FDF70DFA0020B3
:102FB000F7E7000047455420257320485454502F0C
:102FC000312E310D0A486F73743A2025733A2575F6
:102FD0000D0A436F6E6E656374696F6E3A20636CA1
:102FE0006F73650D0A0D0A005B485454505D5B45D4
:102FF00052524F525D204661696C656420746F20A7
:1030000073656E6420485454502072657175657301
:10301000740D0A005B485454505D5B4552524F5248
:103020005D20496E76616C69642055524C20666F54
:10303000726D61743A2025730D0A0000380000207B
:103040000D0A0D0A00000000EC1000205B485454EB
:10305000505D204865616465727320736B697070A0
:1030600065642028256C75206279746573290D0AC2
:10307000000000002B4950442C0000005B485454D1
:10308000505D5B5741524E5D204D616C666F726DB5
:10309000656420495044206865616465720D0A00CA
:1030A0005B485454505D205472616E7366657220A3
:1030B000636F6D706C657465642E20546F74616C01
:1030C0003A20256C752062797465730D0A00000042
:1030D0005B485454505D5B4552524F525D204E6FD9
:1030E0002076616C69642064617461207265636537
:1030F000697665640D0A00002DE9F047214C82468F
:103100000027A0788946012839D14FF0000884F8BB
:10311000028040461C4E616A03E0325C3A2A0FD0BE
:10312000401C8842F9D361795046FDF723FD21798F
:103130004846FDF71FFD70198578A81C0A2104E098
:103140000546F0E7B0FBF1F07F1C0028FAD13744C8
:1031500007F11201B88946BAAA1B4846521EFDF76C
:1031600050FC07F10E0132465046FDF74AFC064876
:10317000616AFDF721FD25716671C4F82480BDE800
:10318000F087000014000020EC10002007480178B0
:10319000012909D141784A1C42700A2904D9012128
:1031A0008170002101704170704700001400002000
:1031B0002DE9F04F04465EA791B092468B46384603
:1031C000FDF7ABFB86B22068FDF7A7FB85B24FF495
:1031D00000615948FDF7F0FCA07B4FF00409C028BE
:1031E00026D040285BD080287CD071190831CBB222
:1031F000A189226805F0FF0CCCB20DF110080992EC
:103200002D0A090A88E83310F0B2310ACDE900101E
:10321000CDE90279102249A14748FDF7E1F811B044
:1032200053465A46BDE8F04FC1B24348FEF7DCBAF8
:103230006068FDF772FB1FFA80F8A068FDF76DFB70
:10324000721980B202EB080101440C31CBB2D4E90F
:10325000011CC2B20DF1340E000A0C918EE805106B
:1032600008F0FF0C4FEA18220DF12008E8B221689F
:1032700088E80710A089290AA47BC2B20791000A36
:10328000CDE90502F0B2320ACDE900200297CDE97E
:103290000394102230A12848FDF7A2F8BFE7A068E8
:1032A000FDF73BFB80B2711901440A31CBB2C2B2C7
:1032B000A168D4F800C0CDE90B21000ACDE909C00E
:1032C000A089EAB2290AC5B2000ACDE90505CDE90F
:1032D0000712A07BF2B2CDE90390300A8DE8850099
:1032E0001FE0FFE76068FDF718FB80B27119014429
:1032F0000A31CBB2D4E9001CC2B2000ACDE90910F0
:10330000CDE90B2CE9B22A0AA089CDE90721C5B283
:10331000000ACDE90505A17BF2B2300A04918DE8DF
:103320008502102216A10448FDF75AF877E700003D
:103330004D51545400000000EC1800202563256313
:10334000256325632573256325632563256325632D
:10335000256325730000000025632563256325632D
:1033600025732563256325632563256325632573FD
:1033700025632563257325632563257300000000FD
:1033800025632563256325632573256325632563ED
:103390002563256325632573256325632573000055
:1033A0002DE9F04387B01C460D468046DDF8389085
:1033B000FDF7B3FA0746401DC6B24FF400610D4851
:1033C000FDF7FAFB02ABFAB20020059583E8050190
:1033D0000121CDE900013346822207A10548FCF70F
:1033E000FFFF07B04B462246BDE8F043C1B201489B
:1033F000FEF7FAB9EC1800202563256325632563E1
:1034000025632563257325630000000030B587B070
:1034100014216846FDF7D0FB26480024016841F0DE
:1034200004010160016801F004010591016841F0A7
:1034300080010160016801F080010591016841F09F
:1034400001010160016801F001010591016841F08D
:10345000020101600068184D00F002000590002292
:1034600020212846FEF754FE4FF4005000904FF400
:103470000410CDE9010469461048FEF75BFD4FF4E6
:10348000C06000900220CDE90104032003900720D2
:10349000049069462846FEF74DFD2020009001204B
:1034A000CDE90104694628460394FEF743FD07B0C1
:1034B00030BD0000303802400000024000080240E9
:1034C000FEE7FEE77047704710B5FFF75FFEBDE807
:1034D0001040FEF729BE000030B593B03421684695
:1034E000FDF76AFB14210DA8FDF766FB20480025B7
:1034F000016841F080510160006800F08050129036
:103500001C48016841F4404101600068022400F455
:103510004040129001200090000401908001CDE90C
:10352000064004200890B420CDE909040B946846B5
:103530000C94FEF7D1FF08B172B6FEE7FEF790FEDD
:1035400008B172B6FEE70DA90F2081E831004FF4F3
:10355000A05010904FF48050119005210DA8FEF757
:10356000B7FE002801D072B6FEE713B030BD0000F0
:1035700040380240007000400248016841F4700188
:103580000160704788ED00E010B5806B0021C185B7
:10359000C184FFF7CFF910BD10B5806B0021C18544
:1035A000202280F842200163FFF777F910BD0168FF
:1035B0000C3151E8002F22F4907241E80023002BD7
:1035C000F5D10168143151E8002F22F0010241E8E1
:1035D0000023002BF5D1016B012909D101680C31C1
:1035E00051E8002F22F0100241E80023002BF5D112
:1035F000202180F8421000210163704708B590F83F
:103600004210222901D0022008BD82684FF4805365
:103610009A4201D1016921B1816A9A421BD04AB113
:103620000AE00268816A5268C2F308020A80816A6D
:10363000891C08E0026972B10268526802F07F02D8
:103640000A70816A491C8162C18D491E0904090CF6
:10365000C18503D01BE002685268F1E70168CA68BF
:1036600022F02002CA600168CA6822F48072CA602F
:1036700001684A6922F001024A61202180F8421063
:1036800000214163026B012A03D0FFF763FB002096
:1036900008BD016301680C3151E8002F22F01002CF
:1036A00041E80023002BF5D101680A68D20602D553
:1036B0000A6849680091818DFFF7EEF8E7E700009E
:1036C00070B5044600680169E26821F44051114375
:1036D00001612169A068E2690843616911430843F7
:1036E0002168CA6849F20C639A430243CA602068A1
:1036F0004169A26921F44071114341613149206857
:10370000884202D03049884202D1FEF78BFE01E0A8
:10371000FEF778FEE2690023192164253226B2F50E
:10372000004F626828D0A0FB0101930F9200FCF7C4
:10373000D3FD0146B0FBF5F06FF01802504301EBEA
:10374000800006EB0010B0FBF5F000F0F002B1FBDA
:10375000F5F002EB0012B1FBF5F06FF018035843DF
:1037600001EB800006EB0010B0FBF5F000F00F005D
:1037700021681044886070BDA0FB010192185B4174
:10378000FCF7AAFD0146B0FBF5F00201B1FBF5F034
:103790006FF01803584301EB800006EBC000B0FB4C
:1037A000F5F000F0F80002EB4002B1FBF5F05843F1
:1037B00001EB800006EBC000B0FBF5F000F0070065
:1037C000D6E70000001001400014014081628285AC
:1037D000C28500214164222180F84210016921B193
:1037E0000168CA6842F48072CA6001684A6942F09E
:1037F00001024A610068C16841F02001C1600020F7
:1038000070472DE9F843984617460D460446089E32
:1038100024E0701C22D0FEF781FCA0EB0800B0422F
:103820001AD8CEB12068C168490717D5802D15D0A8
:10383000402D13D00168C94309070FD40168002542
:10384000406800902046FFF7B2FE0820606484F8CC
:1038500040500120BDE8F8830320FBE720680068A2
:1038600035EA000004D00020B842D2D00020F1E7B1
:103870000120F9E70148FFF75FB800004C00002085
:10388000FEE70907090E002804DB00F1E02080F8BC
:103890000014704700F00F0000F1E02080F8141DC4
:1038A000704730380A2801D2012070470020704745
:1038B00010B501460348FDF71EF8002800D001208E
:1038C00010BD0000EC080020064800680649884248
:1038D00001D1012070470549884201D1022070477B
:1038E0000020704708ED00E0000002080000040816
:1038F0002DE9F043ADF2044D0D468146FFF7E4FF9C
:10390000040044D000F0E6F88046204600F0ECF8D1
:1039100007460246414627A0FCF756FD3946404679
:10392000FEF76AF9002834D04FF4817455B10222B1
:103930002AA12846FDF71AF800282ED02846FCF7C1
:103940008BFF84B2264D002601222E60EE602A7085
:10395000C5E9018705F11000AC810270C0E901875B
:1039600084814B461FA24FF480616846FCF74EFDF0
:103970002246694624A0FCF727FD2C496846FFF73C
:1039800055FA80B101200DF2044DBDE8F08328A066
:1039900000E02FA0FCF718FD09E010220021A81C70
:1039A000FCF767FFCDE733A0FCF70EFD2E7000207B
:1039B000E9E700005B495046535D20457261736939
:1039C0006E67203D3E2030782530386C5820736972
:1039D0007A653D256C750D0A000000003078000006
:1039E000EC200020687474703A2F2F3139322E3158
:1039F00036382E312E31323A383038302F697066F1
:103A0000732F2573000000005B495046535D20551D
:103A1000524C3D2573203D3E206E65775665723DC4
:103A20003078253034580D0A00000000AD3C020803
:103A30005B495046535D20556E6B6E6F776E2073F9
:103A40006C6F74203D3E2061626F72742E0D0A000F
:103A50005B495046535D20466C61736845726173E3
:103A600065206661696C203D3E2061626F72740D55
:103A70000A0000005B495046535D20495046535FA1
:103A800048747470476574206661696C203D3E20FF
:103A900061626F72742E0D0A000000000849096807
:103AA000C90706D0064980390968CA074FF0604146
:103AB00001D1704700BF0A68002AFBD00870704728
:103AC000800E00E002490EC980E80E007047000039
:103AD00000800008012801D0014870470148704764
:103AE00000000208000004084FF400307047000096
:103AF00030B585B04FF4FA70ADF8100002208DF8A3
:103B0000120016A0019017A0FCF75EFC0120FDF743
:103B1000E5FC1D4C00250095012319A21BA0A168FE
:103B2000FDF7BAFD01200090034619A217A0A16875
:103B3000FDF7B2FD0022012101A8FFF739FB009536
:103B40000123154A0021E068FFF72AFC01221349EE
:103B50001148FFF7F1F805B030BD00004465766903
:103B6000636531003D3D3D204D51545420436F6EFF
:103B70006E656374696F6E203D3D3D0D0A00000067
:103B8000313838330000000000000020544350005A
:103B900038303830000000004C00002017000020B2
:103BA00010B5FEF7C9FAFFF797FCFFF72FFC0B489B
:103BB00009490C2201604FF4E1314160002181602C
:103BC000C160C0E904128161C161FEF7EDFF002808
:103BD00001D072B6FEE710BD001001404C0000207D
:103BE00010B5A2B023A0FCF7EFFB262229490FA8AD
:103BF000FCF78EFF274CE08CADF86200A06A1990AC
:103C0000A08DADF86800E08DADF86A00206B1B90C8
:103C1000606B1C90092204F138011DA8FCF778FFA5
:103C200094F841008DF87D0094F842008DF87E00F4
:103C3000606C20903C2212A96846FCF769FF0FAC2B
:103C4000012094E80E00FDF7D9FB134CD4E90001E4
:103C5000FDF742FEA068FDF787FC0E484830FDF7EF
:103C6000CFFC22B00B49BDE8104048310BA0FCF757
:103C7000ABBB00003D3D3D205769466920496E6958
:103C80007469616C697A6174696F6E203D3D3D0DA8
:103C90000A0000004C000020000000204C6F63610F
:103CA0006C2049503A2025730D0A000070B5244C51
:103CB0000D460028A16825D1002A23D021A0FCF7B9
:103CC00083FBD4E90112A3892CA0FCF77DFB4FF400
:103CD0007A70FEF773F8FFF7F7FD012810D0012086
:103CE000A18900F09FFABFF34F8F30480168304A36
:103CF00001F4E06111430160BFF34F8F00BFFDE7A6
:103D00000220EDE72278002A19D0002817D0002DD4
:103D100015D06268531801462A461846FDF793FFEE
:103D200040B1A06829464219A260BDE8704021A0B8
:103D3000FCF74ABB28A0FCF747FB0020207070BDB1
:103D4000FC2000205B495046535D20416C6C206490
:103D5000617461203D3E20746F74616C3D256C750B
:103D6000203D3E207365742076657273696F6E2006
:103D70003D3E2072657365740D0A000042617365F3
:103D800020416464726573733D25583B2042617322
:103D9000652053697A653D25582C20426173652062
:103DA0005665723D25580D0A000000000CED00E03C
:103DB0000400FA055B495046535D206368756E6BDD
:103DC000206C656E3D2575203D3E20746F74616CDE
:103DD0003D256C750D0A00005B495046535D204639
:103DE0006C6173685772697465206661696C203D07
:103DF0003E2061626F72740D0A0000000EB5FFF77D
:103E0000CFFEFFF761FD012805D0022803D016A0E0
:103E1000FCF7DAFA03E04FF4807100F003FAFFF7E1
:103E200053FD04466846FFF74DFE17A0FCF7CCFA99
:103E3000012C10D0022C15D01CA11EA0FCF7C4FA36
:103E4000BDF8021021A0FCF7BFFAFFF7C9FEFFF78B
:103E50004FFE00F051F826A116A0FCF7B5FABDF808
:103E60000010EFE723A1E8E74572726F723A205520
:103E70006E6B6E6F776E20736C6F74206465746503
:103E800063746564210D0A003D3D3D20556E6966F1
:103E9000696564204669726D77617265205374614B
:103EA0007274203D3D3D0D0A00000000554E4B4E02
:103EB0004F574E0052756E6E696E6720696E2073A3
:103EC0006C6F742025730D0A000000004375727238
:103ED000656E74206669726D7761726520766572B1
:103EE00073696F6E3A203078253034580D0A00001F
:103EF0004100000042000000A8B0284C4FF4806848
:103F000004F5806526492548FFF7F6F8207838B192
:103F1000224924A0FCF758FA41462048FCF74CFE01
:103F20002878002825D01E4921A0FCF74DFA27A1AA
:103F30001B48FCF7E0FC002816D080216846FCF7FF
:103F40003BFE202120A8FCF737FE20AB6A4622A1C9
:103F50001348FCF7F3FB20AA69462FA0FCF734FABC
:103F600020A96846FFF7C4FC41460D48FCF724FE33
:103F7000C8E7324E012220213046FEF7C9F84FF43F
:103F8000FA673846FDF71AFF002220213046FEF777
:103F9000BFF83846FDF712FFB4E70000A400002088
:103FA000A4040020546F7069633A2025730D0A0041
:103FB0005265636569766564204D51545420706183
:103FC000796C6F61643A2025730D0A004F54415F8C
:103FD00049504653000000007B22636F6D6D616E97
:103FE00064223A2022252A5B5E225D222C20226355
:103FF0006964223A2022253132375B5E225D222C11
:10400000202276657273696F6E223A202225333141
:104010005B5E225D227D0000506172736564203D0D
:104020003E206369643D272573272C2076657273D3
:10403000696F6E3D272573270D0A000000000240BE
:10404000F0B5BBB1994215D3A0B19AB10024CD1AF5
:104050000EE0002105E06618575C865DBE4202D185
:10406000491C9942F7D3994201D12044F0BD641C08
:10407000A542EED20020F0BD2DE9FF4F934681B05E
:104080009A4604462AA10722FCF770FCA8BBE41D4F
:104090002046FCF742FC07193A1B2F212046FCF76B
:1040A0005BFC060000D13846021B814690463A214F
:1040B0002046FCF751FC050001D0281B00E04046DB
:1040C0008046402821DA024621460298FCF799FCF6
:1040D0000298002400F8084085B10A226946681C4D
:1040E000FCF7C7FB002810DDB0F5803F0DDA009A21
:1040F0004A450AD1ABF8000003E006E05021ABF8D6
:10410000001076B1BD1B802D03DB002005B0BDE89B
:10411000F08F2A4631465046FCF773FC0AF80540FA
:1041200003E005A10988AAF800100120EEE70000CD
:10413000687474703A2F2F002F0000002DE9F047AB
:1041400099461746884682460024089E1DE0404650
:10415000FCF7E3FB05463846FCF7DFFB2844C5B215
:104160005046FCF7DAFBC1B24B462A46504600F0F7
:1041700037F84046FFF79CFB01280BD03846FFF785
:1041800097FB012806D0641CE4B2B442DFD30020C0
:10419000BDE8F0870120FBE72DE9F0471746884688
:1041A000814600240D4D13E0A868FCF7B6FBC6B2AB
:1041B0004846FCF7B2FBC1B243463246484600F0DF
:1041C0000FF8A868FFF774FB012804D0641CE4B260
:1041D000BC42E9D30020BDE8F087000014000020B5
:1041E0002DE9F0410C4607461E4615464FF4006186
:1041F0000B48FCF7E1FC0A4864232246394648385C
:10420000FEF7C2FD002809D162193346BDE8F0412E
:104210000349921CA1F14800FEF736BDBDE8F081CC
:10422000EC08002070B586B006460D46134C684673
:10423000FFF748FC2068039060680490A068059030
:10424000012E13D0BDF80000ADF80C00ADF80E50F3
:104250004FF480412046FDF7CFFC002804D00C220B
:1042600003A92046FDF7EFFC06B070BDADF80C5079
:10427000BDF80200ADF80E00EAE70000008000087B
:1042800010B500290AD00878002807D005487844DE
:10429000FDF76AF8002801D0002010BD02487844DC
:1042A00010BD0000820100007A0100004FF0407054
:1042B000E1EE100A7047000000000000000001025B
:1042C000030406070809000000000102030430315E
:1042D000323334353637383941424344454640302D
:1042E00058003031323334353637383961626364DF
:1042F00065664030780004000008000000000000FF
:1043000000020001000010003039373930343337F3
:10431000383000003139322E3136382E312E3132DC
:1043200000000000537765657420686F6D65363254
:104330003200000074657374000000005B45535048
:10434000383236365F706F7274436F6E6E656374A9
:104350005D204661696C656420746F20636C6F73C7
:1043600065206578697374696E6720636F6E6E652A
:104370006374696F6E20696E2073696E676C652D5A
:10438000636F6E6E656374696F6E206D6F64652E0A
:104390000D0A000053454E44204F4B0D0A0000000B
:1043A0004F4B0D0A000000005749464920434F4E2D
:1043B0004E45435445440D0A5749464920474F54FA
:1043C0002049500D0A0000004552524F520D0A007C
:1043D0004F4B0D0A5749464920444953434F4E4ECF
:1043E0004543540D0A0000004F4B0D0A3E200000CB
:1043F00020450208000000204C00000000020208D6
:104400006C4502084C000020442700001C020208F2
:104410001001000043000000F8FFFFFF0040404093
:104420004040404040404141414141404040404087
:104430004040404040404040404040404005020233
:1044400002020202020202020202020202202020F2
:10445000202020202020200202020202020290904E
:10446000909090901010101010101010101010104C
:1044700010101010101010100202020202028888A0
:1044800088888888080808080808080808080808AC
:104490000808080808080808020202024000000094
:1044A000000000000000000000000000000000000C
:1044B00000000000000000000000000000000000FC
:1044C00000000000000000000000000000000000EC
:1044D00000000000000000000000000000000000DC
:1044E00000000000000000000000000000000000CC
:1044F00000000000000000000000000000000000BC
:1045000000000000000000000000000000000000AB
:10451000000000000000000000000000000000009B
:1045200024430208084302081443020834430208E3
:10453000000000000000000000000000A04302088E
:10454000D0430208A843020894430208C843020863
:10455000E8430208DC4302080000000001000000FC
:0C45600010000000000000000024F40027
:04000005080201C527
:00000001FF
