:020000040800F2
:10800000880900209182000867AA0008F3A80008E8
:1080100065AA00081B9200080DAE000800000000D1
:108020000000000000000000000000006BAA000833
:108030001D9200080000000069AA00086DAA00084F
:10804000AB820008AB820008AB820008AB8200085C
:10805000AB820008AB820008AB820008AB8200084C
:10806000AB820008AB820008AB820008AB8200083C
:10807000AB820008AB820008AB820008AB8200082C
:10808000AB820008AB820008AB820008AB8200081C
:10809000AB820008AB820008AB820008AB8200080C
:1080A000AB820008AB820008AB820008AB820008FC
:1080B000AB820008AB820008AB820008AB820008EC
:1080C000AB820008AB820008AB820008AB820008DC
:1080D000AB82000801AE0008AB820008AB8200084A
:1080E000AB820008AB820008AB820008AB820008BC
:1080F000AB820008AB820008AB820008AB820008AC
:10810000AB820008AB820008AB820008AB8200089B
:10811000AB820008AB820008AB820008AB8200088B
:10812000AB820008AB820008AB820008AB8200087B
:10813000AB8200080000000000000000AB820008D5
:10814000AB820008AB820008AB820008AB8200085B
:10815000AB820008AB820008AB820008AB8200084B
:10816000AB820008AB820008AB820008AB8200083B
:10817000AB820008AB820008AB8200080000000060
:1081800000000000AB8200080000000000000000BA
:10819000AB8200080000000000000000AB82000875
:1081A000000000000000000000000000AB8200089A
:1081B000AB820008AB820008AB820008AB820008EB
:1081C000AB82000800F002F800F053F80AA090E833
:1081D000000C82448344AAF10107DA4501D100F082
:1081E00048F8AFF2090EBAE80F0013F0010F18BFFC
:1081F000FB1A43F001031847143600003436000020
:10820000103A24BF78C878C1FAD8520724BF30C8C2
:1082100030C144BF04680C60704700000023002494
:1082200000250026103A28BF78C1FBD8520728BF86
:1082300030C148BF0B607047642900F03381752955
:1082400000F03081782900F06981732900F03B85C6
:10825000002070471FB503F041FA00F093FF0400BF
:108260000020002103F024FA401C60601FBD10B5FF
:1082700010BD00F04BFF1146FFF7ECFF03F00CF8C8
:1082800000F072FF03B4FFF7F2FF03BC00F07EFFC3
:108290000948804709480047FEE7FEE7FEE7FEE79A
:1082A000FEE7FEE7FEE7FEE7FEE7FEE704480549D6
:1082B000054A064B704700001DAB0008C581000849
:1082C00088030020880900208805002088050020F8
:1082D00053EA020C00F069802DE9F04B4FF00006E4
:1082E000002B1FBFB3FA83F503FA05F424FA05F651
:1082F0005E4012BF1643B2FA82F502FA05F4C5F1E8
:1083000020051EBF22FA05FC44EA0C04203556EA7B
:10831000044C4FEA144418BF641C4FF000084FF09F
:108320000009904271EB030C39D3002919BFB1FA4F
:1083300081F701FA07F6B0FA80F700FA07F6C7F1FD
:1083400020071EBF20FA07FC46EA0C062037B6FBC2
:10835000F4FCA7EB0507103F07F01F0BCBF120063D
:108360000CFA0BFB2CFA06F644BFB3460026202F6E
:10837000A4BF5E464FF0000B5BEA060C08BF4FF04F
:10838000010B19EB0B09ABFB027C48EB0608C01B89
:1083900006FB02CC0BFB03CC71EB0C01C1E70B46D7
:1083A000024641464846BDE8F08B13B54FF0000049
:1083B0004FF00001AFF30080BDE81C4070470000A3
:1083C0000FB4044910B503AA029800F081FC10BC58
:1083D0005DF814FB1C0000200FB41CB5084B06AA66
:1083E0007B4469460090059800F043FC0446002059
:1083F000694600F051FC20461CBC5DF814FB0000EF
:10840000B508000070B5044685690068C10601D54D
:10841000302600E02026C00707D070BDD4E9012136
:1084200030469047206A401C20626D1EF6D570BD14
:1084300070B5044685690078C00707D170BDD4E9DE
:10844000012120209047206A401C20626D1EF6D535
:1084500070BD70B50C460546012A05D02878800607
:1084600000D5EA69002302E0012305E05B1C93428A
:1084700002D2E05C0028F9D1A869E618C01AA86108
:10848000286A184428622846FFF7BCFF04E0D5E9B3
:10849000012114F8010B9047B442F8D32846FFF7A6
:1084A000C7FF70BD2DE9F04106460024106875290C
:1084B000314616A510D0AFF30080002802DA404202
:1084C00013A507E031688A0701D512A502E0490724
:1084D00004D511A5012401E0AFF3008000210A2298
:1084E00006F1240709E0B0FBF2FCB0FBF2F302FB5B
:1084F0001C00303078541846491C0028F3D123461C
:108500002A463046BDE8F04100F055BB00000000AF
:108510002D0000002B0000002000000070B5044674
:108520000D4621461068AFF300802188090502D569
:108530000F4A7A4402E00E4A7A440E32002104F1D6
:10854000240305E000F00F060009965D5E54491C07
:108550000028F7D120780023000704D5702D02D021
:1085600009B1022311322046BDE8704000F023BB60
:10857000C83100002DE9F05F894604464FF0000A3B
:10858000DFF874B1FB44C0F820A02046E1688847BA
:10859000002874D0252806D0D4E901219047206A0C
:1085A000401C2062F1E700265F462046E1688847CC
:1085B0002028054607DB312D05D2781910F8200C4C
:1085C00008B10643F1E7B00701D526F00406C4F868
:1085D0001CA00027C4F818A02A2D09D0284602F0B4
:1085E00026FC38B304EB8708303DC8F8185019E072
:1085F00059F8041B204604EB87029161E168884723
:10860000012F054618D1E069002820DA26F020065F
:108610001DE0D8F8180000EB800005EB4000303872
:10862000C8F818002046E1688847054602F0FFFBBD
:108630000028EED1012F0AD02E2D08D12046E16866
:1086400088477F1C0546022F46F02006C4DBA06940
:10865000002803DA404246F00106A061F00701D08D
:1086600026F010066C2D0BD0682D09D04C2D39D07A
:108670006A2D35D0742D35D07A2D33D016E038E000
:10868000E1682F4620468847B842054609D16C2F3D
:1086900026D04FF48060E1680643204688470546AF
:1086A00004E06C2F1AD04FF4807006430DB3A5F18F
:1086B0004100192802D8203546F400664A4629466A
:1086C000204626604E46FFF7B7FD80B101280BD04B
:1086D000F61D26F0070000F1080956E74020E4E700
:1086E0008020D8E70020D6E706F104094DE72846A8
:1086F00052E7206ABDE8F09F9E3100000FB400B53C
:108700008DB010A9099000910B904FF0FF300A90A6
:1087100000200C90064878440690064878446A4643
:1087200007900F9909A800F0F9FA0DB05DF814FB55
:10873000230600003B0600002DE9FF5F1D464FF0B9
:10874000FF3B91464FF000085F46D5E90146A96915
:1087500001987F1C8847296A824688470028F6D1FD
:10876000BAF1FF3F0CD0002E24F4C06419DD60067E
:1087700014D5BAF12B0F09D0BAF12D0F0ED103E0A9
:10878000584604B0BDE8F09F44F48064A96901989C
:108790007F1C8847761E8246002E02DDBAF1300F1C
:1087A00003D0B9F1000F26D032E0A969761E0198F6
:1087B0007F1C44F400748847002E824605DDBAF120
:1087C000780F06D0BAF1580F03D0B9F1000F10D0CE
:1087D0001EE0B9F1000F02D0B9F1100F18D1A9694C
:1087E000761E01987F1C24F400748847824610206E
:1087F00002E0082000E00A20814609E0A96908FBA0
:108800000908761E01987F1C44F40074884782464C
:10881000002E05DD4946504600F06CFA0028EDDADE
:10882000E96901988847A00502D46FF00100A8E724
:10883000E00725D1600613D5600502D5C8F1000018
:1088400000E0404629680A1D2A600968220501D512
:10885000087015E0220701D5088011E008600FE0DC
:108860002868011D29600068210502D580F8008074
:1088700006E0210702D5A0F8008001E0C0F80080E2
:1088800038467EE72DE9FF5F4FF000089946144611
:1088900046469169D2E901A7DDF838B001988847CA
:1088A000054659EA0B0005D009E0A1690198761C3C
:1088B00088470546216A284688470028F5D1681C64
:1088C00003D05FEACA7005D015E04FF0FF3004B066
:1088D000BDE8F09F2068011D2160D0F800800AE00B
:1088E0005FEACA7001D108F8015BA169761C0198A2
:1088F0007F1E88470546002F1ADD681C18D0B9F185
:10890000000F0DD0E81705EBD060421120F01F00DA
:1089100059F822102A1A012090400142E0D107E0C4
:10892000BBF1000FDCD12846216A88470028D7D048
:10893000E16901988847BBF1000F07D1002E05DDE2
:108940005FEACA7002D1002188F80010A068B8421E
:1089500003DDBBF1000F03D017B16FF00100B6E7E4
:108960003046B4E7401ECAB210F8011F8A4202D056
:108970000029F9D10020704730B505460B462A463C
:1089800013F8014B12F8010B08B1A042F8D01CB14A
:10899000002802D06D1CF1E7284630BD10B5431CFD
:1089A00002E010F8011B71B18107FAD14FF00132DA
:1089B00002C88C1A8C4314EAC211F9D0C01A0A06F4
:1089C00003D0C01E10BDC01A10BD0A0401D0801E05
:1089D00010BD0902FCD0401E10BD032A40F23080B9
:1089E00010F0030C00F0158011F8013BBCF1020FF0
:1089F000624498BF11F801CB00F8013B38BF11F871
:108A0000013BA2F1040298BF00F801CB38BF00F887
:108A1000013B11F0030300F02580083AC0F0088004
:108A200051F8043B083A51F804CBA0E80810F5E7E8
:108A3000121D5CBF51F8043B40F8043BAFF30080CB
:108A4000D20724BF11F8013B11F801CB48BF11F840
:108A5000012B24BF00F8013B00F801CB48BF00F810
:108A6000012B704710B5203AC0F00B80B1E81850C8
:108A7000203AA0E81850B1E81850A0E81850BFF408
:108A8000F5AF5FEA027C24BFB1E81850A0E81850A7
:108A900044BF18C918C0BDE810405FEA827C24BFFB
:108AA00051F8043B40F8043B08BF7047D20728BF89
:108AB00031F8023B48BF11F8012B28BF20F8023BD8
:108AC00048BF00F8012B70474FF000020429C0F0A6
:108AD000128010F0030C00F01B80CCF1040CBCF1F0
:108AE000020F18BF00F8012BA8BF20F8022BA1EB42
:108AF0000C0100F00DB85FEAC17C24BF00F8012B27
:108B000000F8012B48BF00F8012B70474FF000021E
:108B100000B5134694469646203922BFA0E80C5073
:108B2000A0E80C50B1F12001BFF4F7AF090728BF4E
:108B3000A0E80C5048BF0CC05DF804EB890028BFCA
:108B400040F8042B08BF704748BF20F8022B11F0F3
:108B5000804F18BF00F8012B704710B5044610F085
:108B6000030F08BF11F0030F40F015804FF0013ED6
:108B7000121FC0F20E8051F8043BA3EB0E0C2CEA3E
:108B8000030C1CEACE1C08BF40F8043BF0D0A1F156
:108B9000040102F10402521E08DB11F8013B002B14
:108BA00000F8013BF7D11146FFF78EFF204610BDBC
:108BB0007047704770472DE9F0470D469946924639
:108BC000044600F124080168880604D5E06921F014
:108BD0001001216000E00120A84201DD471B00E0F8
:108BE0000027A1697A1902EB0900081AA061207810
:108BF000C00602D42046FFF705FC002608E0D4E9B1
:108C000001211AF806009047206A401C761C206259
:108C10004E45F4DB2078C0060AD52046FFF7F2FB6C
:108C200006E0D4E9012130209047206A401C2062F0
:108C3000381EA7F10107F4DC07E0D4E9012118F898
:108C400005009047206A401C2062281EA5F10105FE
:108C5000F3DC2046FFF7ECFB2078000602D502206B
:108C6000BDE8F0870120FBE701694A1C0261087832
:108C7000704700B58FB0CDE901310021059105495C
:108C80007944CDE9031011466846FFF773FC0FB035
:108C900000BD0000E5FFFFFF0A6802F8010B0A6053
:108CA000704710B5436913B1AFF3008001E0FFF7DF
:108CB000D0FB012010BD127800F124010A700022BF
:108CC0004A700122EDE711684FF0FF32E9E700003A
:108CD000074B70B50D467B44FFF7CBFF0446284693
:108CE00000F010FA10B14FF0FF3070BD204670BD9B
:108CF000A32100003A2800D2303820F02002412A77
:108D000001D3A2F13700884201D34FF0FF30704702
:108D1000026811441378016018467047D160054914
:108D2000794451610449794411620021116111466D
:108D300000F02EB8EDFFFFFF53000000426842B183
:108D4000016811F8013B23B1521EC0E90012184618
:108D500070470121C160881E704742685AB1C368DC
:108D6000016843B983688B4205D0491E521CC0E993
:108D70000012002070474FF0FF30704710B50446D6
:108D800000F0EAF90068005D00F0010010BD00008D
:108D90002DE9F34F4FF0000A0C4656468DB00120E6
:108DA0000C9001F10C000B9062690B980121904727
:108DB000051E2DD0252D2CD0216A8847C0B16269AF
:108DC0000B9801219047216A88470028F7D16269F2
:108DD000411E0B98904700E0761CA1690D988847CA
:108DE000216A88470028F7D1E1690D988847DBE7B9
:108DF000A1690D988847A842074601D1761CD3E7A0
:108E0000E1690D9888477F1C02D1BAF1000F6FD03D
:108E10006BE162690B9800273D46394690472A2846
:108E200004D162690B98012190470125DFF8D082B7
:108E300062690B9801219047A0F130010A290AD2FA
:108E40004745E5DC07EB870100EB4107303FDFD406
:108E500045F01005ECE7E90601D46FF000476C28F7
:108E60000AD04C2814D0682815D06A280DD0742850
:108E70001CD07A281AD01DE062690B980121904716
:108E80006C2802D045F0040514E045F002050DE021
:108E900045F020050AE062690B9801219047682897
:108EA00002D045F0080505E045F4006562690B98BD
:108EB00001219047C4E9015765283DD019DC5828A5
:108EC0007AD00CDC452837D004DC252826D0412870
:108ED0009ED131E046282FD0472899D12CE05B283D
:108EE00077D0612828D063287CD0642823D15AE029
:108EF000F6E06F2848D008DC66281DD067281BD014
:108F0000692821D06E2816D127E0702845D0732813
:108F100068D0752847D078280DD14DE0A1690D980B
:108F20008847252805463FF469AFE1690D988847D1
:108F30006D1C3FF46AAFD8E00D9923466A466FF086
:108F40000100AFF30080C5E045F0400023464FF03C
:108F500000026060A80736D43EE0E8077FF447AF20
:108F60002068011D21600068290501D506701BE7F6
:108F7000290701D5068017E7A90703D5F117C0E92E
:108F8000006111E706600FE745F0400023464FF00F
:108F900008026060A80716D41EE040F60E0125EA1C
:108FA0000100606016E045F0400023464FF00A02E1
:108FB0006060A80707D40FE045F040006060A80794
:108FC00008D5234610220D996FF00100AFF3008001
:108FD00080E007E0102223460D996FF00100FFF7B3
:108FE000ABFB77E04FF0000963284F46C8464B467D
:108FF000CB4602D05B2806D038E0E80601D4012039
:10900000A060012732E06269D4F80CB00B9801210E
:1090100090475E2807D14FF0010949466269D4F8AC
:109020000CB00B989047216939B900210A4603AB6F
:1090300043F82120491C0829FADBD8B3216949B338
:1090400008F1010862690B98012190475D28F4D16D
:10905000B9F1000F09D0002003A951F82020D24314
:1090600041F82020401C0828F7DB03AB20690028CA
:1090700020794FEA40701ED05B462246CDF8008032
:10908000CDE901970D9900286FF0010020DAAFF3C8
:1090900000801FE0C11703AA00EBD1614B1121F042
:1090A0001F0102EB8302411A136801208840034329
:1090B0001360C7E719E00D99224600286FF0010000
:1090C000009702DAAFF3008004E0FFF7DBFB01E07A
:1090D000AFF3008000280ADA401C06D10C9820B1BA
:1090E0004FF0FF300FB0BDE8F08F5046FAE7E907C8
:1090F00001D10AF1010A064400200C9054E6000058
:10910000CCCCCC0C007B00F080007047754600F0A2
:1091100035F8AE4605006946534620F007008546FF
:1091200018B020B5FFF7C2F8BDE820404FF00006A8
:109130004FF000074FF000084FF0000B21F007013F
:10914000AC46ACE8C009ACE8C009ACE8C009ACE882
:10915000C0098D467047000010B500F013F8001DDF
:1091600010BD00BF4D25000010B50446AFF30080D0
:109170002046BDE81040FFF785B800000048704762
:1091800028030020004870474803002001491820A8
:10919000ABBEFEE7260002004FF0013C50F8042B66
:1091A00051F8043B9A4221D1A2EB0C03934313EAFA
:1091B000CC1317D150F8042B51F8043B9A4215D127
:1091C000A2EB0C03934313EACC130BD150F8042BFE
:1091D00051F8043B9A4209D1A2EB0C03934313EAE2
:1091E000CC13DBD04FF00000704700BFD01A01BA9B
:1091F000B1FA81F101F0180122FA01F0CB40C1F17E
:109200002001DBB2C0B2C01A2CFA01F3D11A91438B
:1092100011EAC311E6D170477047FEE770470000BE
:109220000FB430B585B00546482209A91448FFF7A8
:1092300019FC4FF496740A22214612A002F0DCF9C0
:10924000012801D011A00FE019A0FFF7B9F82A46B4
:109250001CA16846FFF7C0F80A222146684602F0C2
:10926000CBF9012807D01BA0FFF7AAF8002005B012
:1092700030BC5DF814FB1DA0FFF7A2F80120F6E753
:109280009401002041540D0A0000000043616E6EFD
:109290006F7420636F6D6D756E696361746520779F
:1092A0006974682045535038323636210D0A000063
:1092B00045535020697320776F726B696E670D0A92
:1092C0000000000041542B43574D4F44453D256459
:1092D0000D0A000043616E6E6F7420736574205731
:1092E000694669206D6F6465210D0A004553502061
:1092F00057694669206D6F6465207365740D0A00B7
:1093000030B58DB0054634216846FFF7FFFB2A468D
:1093100010A16846FFF760F86846FFF73FFBC1B24F
:1093200041F288334622684602F08AF90D48806887
:1093300001F084FD012808D0002429460AA000BFBE
:10934000FFF73EF80DB0204630BD012429460CA0A1
:10935000F6E7000041542B50494E473D2225732229
:109360000D0A00002000002050696E6720746F20F5
:109370002573204641494C4544210D0A0000000058
:1093800050696E6720746F20257320535543434501
:109390005353210D0A00000070B50646642117489A
:1093A000FFF7B4FB4FF4FA6364220A2114A002F021
:1093B00047F916A11148FFF7DFFA002817D0C01DA2
:1093C00004462221FFF7CEFA002810D0051B102DED
:1093D0000CD22A4621463046FFF7BFFB00207055CD
:1093E0000C48806801F02AFD012801D0002070BDE2
:1093F000314609A0FEF7E4FF012070BDDC0100202A
:1094000041542B43494653520D0A000053544149DD
:10941000502C2200200000204D7920436C69656E9D
:10942000742049503A2025730D0A0000F0B59BB016
:10943000184C03250F460095D4E902120646642312
:1094400015A002F0ABF8012803D016A0FEF7B8FF74
:1094500017E0642101A8FFF759FB3B4632461BA1E8
:1094600001A8FEF7B9FF009544F6206301A8226920
:10947000A16802F093F8012806D0314619A0FEF742
:109480009FFF00201BB0F0BD1FA0FEF799FF012039
:10949000F8E700002000002041542B435751415071
:1094A0000D0A00004661696C20746F206469736363
:1094B0006F6E6E6563742070726576696F75732068
:1094C00057692D4669210D0A0000000041542B43C5
:1094D000574A41503D222573222C222573220D0A22
:1094E000000000004661696C20746F20636F6E6E2F
:1094F0006563742057692D46693A20535349443DAA
:1095000025730D0A0000000057692D466920697314
:1095100020636F6E6E65637465640D0A0000000061
:10952000002229B101291AD002291BD04FF4407220
:109530000E490B6823F440730B600B6813430B60F8
:109540000A6822F0F8020A600A68022303EBC000EE
:1095500002430A60086840F48030086070474FF4A6
:109560008072E5E74FF40072E2E70000103C024031
:109570001348016889050FD5016821F40071016065
:10958000016841F400610160016821F4006101603B
:10959000016841F400710160016849050FD5016857
:1095A00021F480610160016841F48051016001682B
:1095B00021F480510160016841F4806101607047CD
:1095C000003C024008490A6822F440720A600A68B6
:1095D00042F004020A600A684FF4803343EA002034
:1095E00002430A6070470000103C0240064A1368BC
:1095F00023F44073136013681360136843F001038E
:109600001360017070470000103C0240094910B51A
:109610000C6824F440740C600C6844F440740C60D2
:109620000C6844F001040C600260BFF36F8F43606C
:1096300010BD0000103C0240074A136823F4407339
:109640001360136843F480731360136843F00103DD
:109650001360018070470000103C0240074A136805
:1096600023F440731360136843F4007313601368AA
:1096700043F001031360016070470000103C02409A
:109680001C490868C2061C4805D5C26942F0100290
:10969000C26110220A600A68920605D5C26942F0CA
:1096A0000802C26120220A600A68520605D5C26912
:1096B00042F00402C26140220A600A68120605D51F
:1096C000C26942F00202C26180220A600A68D205C1
:1096D00006D5C26942F00102C2614FF480720A608D
:1096E0000A68920705D5C26942F02002C2610220D1
:1096F000086070470C3C02400803002070B5114917
:1097000004460020C86100F0BBFA06460E4D09E091
:10971000601C07D024B100F0B3FA801BA04201D92D
:10972000032070BD2868C003F2D42868C00701D0A8
:1097300001202860286810F4F970F2D0FFF7A0FF2C
:10974000012070BD080300200C3C024070B588B0B9
:109750000D46064600F04CF804467019401E00F015
:1097600047F8054600F07AF900220120CDE90220F1
:10977000281B401C0590022001920690049401A928
:1097800002A800F0D7F820B100F020F9002008B0BE
:1097900070BD00F01BF90120F9E7F8B50646154643
:1097A0000F46800701D00020F8BD00F057F90024D3
:1097B00017E04FF0FF300090201DA84201D804228E
:1097C00000E02A1B39196846FFF707F93119002311
:1097D0000220009A00F004F910B100F0F7F8E2E777
:1097E000241DAC42E5D300F0F1F80120F8BD0000E3
:1097F0001249884201D2002070471149884201D2A3
:10980000012070470F49884201D2022070470E495B
:10981000884201D2032070470C49884201D20420BB
:1098200070470B49884201D2052070470949884298
:1098300001D2062070470720704700000040000852
:109840000080000800C000080000010800000208B5
:1098500000000408000006082DE9F0410446876D69
:1098600000F00EFA064694F835000025022806D0CE
:109870008020606584F834500120BDE8F0812068C4
:10988000016821F0160101602068416921F0800122
:109890004161206C08B9A06C20B12068016821F0FA
:1098A000080101602068016821F0010101600CE0FD
:1098B00000F0E6F9801B052807D920206065032009
:1098C00084F8350084F83450D7E720680068C00772
:1098D000EED194F85C103F208840B860012084F8F5
:1098E000350084F834500020C7E790F8351002297D
:1098F00003D08021416501207047052180F8351093
:109900000068016821F0010101600020704700003B
:1099100070B5044600F0B4F90546601C02D0044856
:109920000078044400F0ACF9401BA042FAD370BDAB
:10993000440000202DE9F047044622480F46017EEE
:1099400001290AD00121804601764CF2503948465F
:10995000FFF7D4FE020003D02FE00220BDE8F0871D
:109960004FF0FF3038602068174D012801D0A668FD
:109970001CE0207C6168FFF725FE4846FFF7BEFE2D
:109980000246286820F00400286014E0217C30465C
:10999000FFF7C6FD4846FFF7B1FE0200286820F039
:1099A000FA00286001D03E6005E0761CD4E9021080
:1099B0000844B042EAD8FFF7DBFD002188F8181010
:1099C0001046CBE708030020103C02400348016822
:1099D00041F000410160002070470000103C02404F
:1099E0002DE9F0471B4E05461446307E1F4689463A
:1099F000012808D0012030764CF250384046FFF75D
:109A00007DFE18B114E00220BDE8F0879DB1012D64
:109A100016D0022D19D022463B464846FFF7F6FDE8
:109A20004046FFF76BFE0C490A6822F001020A600B
:109A300000213176E8E7E1B24846FFF7D7FDEFE7CE
:109A4000A1B24846FFF7F8FDEAE721464846FFF78E
:109A500005FEE5E708030020103C0240074900200E
:109A60000A68002A09DA054A054B0C3A1360054BCF
:109A700013600968002900DA01207047103C024099
:109A800023016745AB89EFCD2DE9F84FDFF8ACA195
:109A90000022012403254FF00F090AF1040BAAF15B
:109AA000040E00BF0B6804FA02F63340B3426ED1D5
:109AB0000F7907F00307012F01D0022F16D1876815
:109AC0004FEA420805FA08FC27EA0C07D1F80CC057
:109AD0000CFA08FC4CEA070CC0F808C04768B7430A
:109AE0000E79C6F3001696403E4346600E79F64363
:109AF000B6070AD0C6684FEA420C05FA0CF7BE4317
:109B00008F6807FA0CF73743C7600E7906F0030633
:109B1000022E10D1D60800EB8608D8F8206057072F
:109B20004FEAD76C09FA0CF7BE430F6907FA0CF736
:109B30003743C8F8207006684FEA420C05FA0CF764
:109B4000BE430F7907F0030707FA0CF737430760A6
:109B50004E6816F4403F6BD0394E376847F4804763
:109B60003760366822F0030706F480460096354ECB
:109B700007EB060CDCF8086897074FEA177809FA34
:109B800008F7BE43304FB84202D100271FE04FE034
:109B90002E4FB84201D1012719E02D4FB84201D113
:109BA000022714E02B4FB84201D103270FE02A4FC0
:109BB000B84201D104270AE0284FB84201D1052755
:109BC00005E0274FB84201D1062700E0072707FA32
:109BD00008F73743CCF80878DAF800605746D1F830
:109BE00004C09E435FEACC2C00D51E433E60DBF8E8
:109BF00000605F46D1F804C09E435FEA8C2C00D51C
:109C00001E433E60DEF800607746D1F804C09E43F4
:109C10005FEA8C3C00D51E433E60084F083F3E681B
:109C2000D1F804C09E435FEACC3C00D51E433E60A1
:109C3000521C102AFFF436AFBDE8F88F083C0140F3
:109C4000443802400030014000000240000402405D
:109C500000080240000C02400010024000140240C4
:109C600000180240426921EA02030A4043EA024125
:109C7000816170470AB1816170470904FBE7000008
:109C80000148806870470000440000200248816855
:109C90000278114481607047440000200B4810B5E1
:109CA000016841F400710160016841F48061016064
:109CB000016841F480710160032000F071F8002018
:109CC00000F006F800F024F8002010BD003C02402F
:109CD00070B50D4D04464FF47A712878B1FBF0F061
:109CE0000A490968B1FBF0F000F074FB48B9102C88
:109CF00007D200222146501E00F032F800206C608E
:109D000070BD012070BD0000440000205000002004
:109D10000B4882B0016841F480410160006800F4A2
:109D2000804000900648001F016841F080510160AA
:109D3000006800F080500090072002B000F030B8BA
:109D400044380240002809DB00F01F020121914045
:109D50004009800000F1E020C0F8001170470000C9
:109D6000F0B40E4B1B680C46C3F30223C3F1070586
:109D7000042D00D90425191D072901D2002300E074
:109D8000DB1E012606FA05F1491E214099409E403E
:109D9000761E16403143F0BC01F039B80CED00E0FE
:109DA000064900F0070208684FF6FF03184040EA32
:109DB0000220034A10430860704700000CED00E0E9
:109DC0000000FA052DE9F8431748016841F0805179
:109DD00001600068154F00F08050012600903E643D
:109DE000FFF74EFF05464FF47A78114C05E000BFAF
:109DF000FFF746FF401B40450DD86068C003F7D50C
:109E00007E64FFF73DFF0546464607E0FFF738FF53
:109E1000401BB04202D90320BDE8F883606880038C
:109E2000F4D50020F8E700004038024000000E4260
:109E3000007000402DE9F0470E46050065D0DFF8C0
:109E40001481D8F80000F7B200F00F00B04207D23A
:109E500088F80070D8F8000000F00F00B04254D12C
:109E600028683D4C810712D5400703D5206840F48F
:109E7000E05020602878000703D5206840F4604057
:109E800020602068A96820F0F0000843206028784E
:109E9000C0072DD0304968680839012812D002283F
:109EA00013D0032811D00968890700292DDA216809
:109EB00021F0030101432160FFF7E2FE814641F2F8
:109EC000883A0EE009688903EFE709688901ECE741
:109ED000FFF7D6FEA0EB0901514502D90320BDE8EA
:109EE000F0872068696800F00C00B0EB810FEFD1BB
:109EF000D8F80010404601F00F01B14207D90770B1
:109F0000006800F00F00B04201D00120E7E7287898
:109F1000400705D52068E96820F4E0500843206038
:109F20002878000706D52068296920F4604040EAB7
:109F3000C100206000F038F82168084AC1F303111D
:109F4000515CC8400649086006480068FFF7C0FE3B
:109F50000020C4E7003C024008380240E6B6000892
:109F600050000020480000200448054900680968A6
:109F7000044AC1F38221515CC84070475000002060
:109F800008380240F6B60008044805490068096828
:109F9000044AC1F34231515CC84070475000002070
:109FA00008380240F6B60008224810B5006810F0E4
:109FB0000C02214815D04110042A11D01D4C241F39
:109FC000082A0FD00C2A0CD12268236802F03F0225
:109FD0005B0221D52068C0F38810A0FB010120E0BE
:109FE000084610BD2268236802F03F025B0205D5D7
:109FF0002068C0F38810A0FB010104E02168C1F3D0
:10A000008811A1FB00010023FEF762F92168C1F36A
:10A010000141491C49000AE02168C1F38811A1FBF4
:10A0200000010023FEF754F92168C1F30271B0FB6F
:10A03000F1F010BD083802400024F4002DE9F84F7B
:10A0400004007DD0DFF878B32078ABF10407C007B7
:10A05000A7F1040550D0DBF800105846C1F3810188
:10A0600001290FD00168C1F38101022902D13968A9
:10A07000490207D40068C0F38100032809D1386879
:10A08000400206D52868800336D560680028D8D0FD
:10A0900032E06068B0F5803F10D0B0F5A02F28689E
:10A0A00010D020F480302860286820F480202860B8
:10A0B0006068A0B1FFF7E4FD06460CE0286840F4B4
:10A0C0008030F4E740F480202860F7E7FFF7D8FD00
:10A0D000801B642876D828688003F7D50CE0FFF74A
:10A0E000CFFD064605E000BFFFF7CAFD801B6428D0
:10A0F000F0D828688003F7D42078DFF8C89280076A
:10A100004FF0000A44D5DBF80010584611F00C0F50
:10A110000FD00168C1F38101022902D139684902D7
:10A1200007D50068C0F3810003280AD138684002CF
:10A1300007D42868800715D5E068012800D111E010
:10A140003AE1E068B0B10120C9F80000FFF798FDDE
:10A15000064604E0FFF794FD801B0228BAD8286861
:10A160008007F7D52868216920F0F80040EAC1008F
:10A1700028600DE0C9F800A0FFF782FD064604E064
:10A18000FFF77EFD801B02281CD828688007F7D4C3
:10A190002078000727D5DFF828828B48616908F10D
:10A1A0006C0881B101210160FFF76AFD064604E0F9
:10A1B000FFF766FD801B022804D8D8F8000080074E
:10A1C000F6D510E089E0C0F800A0FFF759FD06467B
:10A1D00005E000BFFFF754FD801B02287DD8D8F8AA
:10A1E00000008007F6D42078400769D574484FF006
:10A1F000000838300068C0000BD47148383001685E
:10A2000041F08051016000684FF0010800F080507B
:10A2100000906E4E3068C00511D4306840F48070F4
:10A220003060FFF72DFD009006E000BFFFF728FD2E
:10A230000099401A022850D83068C005F6D5604E03
:10A24000A068683601280FD00528306810D020F0AB
:10A2500001003060306820F004003060A068B8B1C0
:10A26000FFF70EFD00900FE0306840F00100F4E7CA
:10A2700040F004003060F7E7FFF702FD0099411A53
:10A2800041F28830814264D830688007F4D50EE00E
:10A29000FFF7F6FC009007E0FFF7F2FC0099411A87
:10A2A00041F28830814254D830688007F4D4B8F144
:10A2B000000F05D042483830016821F0805101601C
:10A2C000A069A8B3DBF80010C1F38101022947D0CF
:10A2D0000228C9F860A005D000E03AE0FFF7D0FC02
:10A2E000044639E0FFF7CCFC064604E0FFF7C8FC63
:10A2F000801B02282DD828688001F7D4F4E90701D3
:10A300000843E168324A490802EB0141A26841EA88
:10A3100082110843217C40EA0160217D40EA0170FE
:10A3200038600120C9F86000FFF7AAFC044606E087
:10A3300044E000BFFFF7A4FC001B022809D82868EE
:10A340008001F7D53AE000BFFFF79AFC001B022816
:10A3500002D90320BDE8F88F28688001F4D42DE0ED
:10A360000128F7D03868E26900F48001914223D1D6
:10A37000226A00F03F0191421ED147F6C071626A25
:10A380000140B1EB821F17D1A26A4FF0FF3300F4F6
:10A39000403103EB5202B1EB024F0DD194F82C2067
:10A3A00000F07061B1EB026F06D194F8301000F04C
:10A3B000E040B0EB017F01D00120CBE70020C9E7EE
:10A3C0000838024000004742800E474200700040BB
:10A3D0000000FFFF10B5401EB0F1807F01D30120C7
:10A3E00010BD4FF0E02460610F21601700F00FFDF9
:10A3F0000020A06107202061002010BD7047704739
:10A40000F8B5016804460868CA684B6910F00F0F78
:10A410004FF0000559D003F0010602F4907737435E
:10A4200065D0C10705D0D10503D5616C41F00101AC
:10A430006164410705D5D90703D0616C41F0020181
:10A440006164810705D5D90703D0616C41F004012F
:10A450006164010707D502F02001314303D0616C2C
:10A4600041F008016164616C00293AD0800604D58E
:10A47000900602D5204600F088FB20684069616C98
:10A48000C0F38010090700D460B3204600F056FBEB
:10A4900020684069400621D52068143050E8001F2C
:10A4A00021F0400140E80012002AF5D1E06BA8B18C
:10A4B0006E490165E06BFFF718FA002811D0E06BD8
:10A4C000016D01B0BDE8F040084783060FD5930643
:10A4D0000DD52046BDE8F84000F057BB2046FFF7F9
:10A4E0008EFFF8BD2046FFF78AFF6564F8BD266B36
:10A4F0002023012E7DD1C6067BD5D60679D50868E6
:10A500004868009048694FF00206400641D5E16B6B
:10A51000086840680004000CE8D0A28D8242E5D9AA
:10A52000E085C869B0F5807F2DD020680C3050E8F8
:10A53000001F21F4807140E80012002AF5D1206844
:10A54000143050E8001F21F0010140E80012002AF9
:10A55000F5D12068143050E8001F21F0400140E898
:10A560000012002AF5D184F84230256320680C30AF
:10A5700050E8001F21F0100140E80012002AF5D138
:10A58000E06BFFF769F96663A08DE18D401A81B237
:10A590002AE0A08DE18D401A81B2E08D0028A5D07F
:10A5A0000029A3D022680C3252E8000F20F49070EA
:10A5B00042E80007002FF5D12068143050E8002F42
:10A5C00022F0010240E80027002FF5D184F8423044
:10A5D000256320680C3050E8002F22F0100240E87C
:10A5E0000023002BF5D166632046FFF707FFF8BD77
:10A5F000FFE705062BD5150629D594F8410021283B
:10A60000F5D1A068B0F5805F01D12069B0B1206AB2
:10A61000411C2162216800784860E08C401E0004E3
:10A62000000CE084E3D12068C16821F08001C160A2
:10A630002068C16841F04001C160D8E7206A008805
:10A64000C0F308004860206A801C2062E5E74006ED
:10A65000CDD55006CBD5CA68204622F04002CA604C
:10A6600084F8413000F044F9C1E700002DAB000848
:10A6700070B5040004D094F84100002510B106E044
:10A68000012070BD84F84050204600F023F82420BB
:10A6900084F841002068C16821F40051C16020465F
:10A6A00000F0D4FA2068016921F49041016120682A
:10A6B000416921F02A0141612068C16841F40051DB
:10A6C000C1606564202084F8410084F8420065631D
:10A6D000002070BD10B586B0044614216846FEF710
:10A6E00015FA18492068884229D1174800210268C4
:10A6F00042F010020260006800F01000059012485D
:10A700001438026842F001020260006800F00100A3
:10A7100005904FF4C06000900220CDE901010320B4
:10A7200003900720049069460848FFF7ADF900221E
:10A7300011462520FFF714FB2520FFF703FB06B089
:10A7400010BD0000001001404438024000000240EB
:10A750002DE9F84F044690F842009A4616460D46F9
:10A76000202802D00220BDE8F88FB5B1AEB100209C
:10A770006064222184F842102063FFF781FAA685E5
:10A780008146E685A0684FF480582027404501D1D6
:10A79000206920B12E46002529E00120E3E70026AC
:10A7A00025E04B46002220212046CDF800A000F0F5
:10A7B000EEFA18B184F842700320D4E726B1A068FD
:10A7C00040451AD038B108E020684068C0F308005E
:10A7D00025F8020B08E0206978B12068406800F095
:10A7E0007F0000BF06F8010BE08D401EE085E08D84
:10A7F0000028D6D184F84270B5E720684068F1E7B8
:10A8000090F84230202B01D00220704721B11AB1BC
:10A810000023036300F0A0BA0120704730B40A4956
:10A820000A4C0A780B79A354521CD2B200230A7046
:10A83000642A00D30B7001224A708B70024930BC2D
:10A84000091DFFF7DDBF00002000002040020020AE
:10A850002DE9F843044690F84100984616460D4607
:10A86000202802D00220BDE8F88385B17EB1002007
:10A870006064212084F84100FFF702FAA684814633
:10A88000E684A0682027B0F5805F02D003E00120B5
:10A89000E9E7206910B12E4600250EE000260CE005
:10A8A0008021204600F073FAA8B9C6B116F8010B52
:10A8B00021684860E08C401EE084E08C4B464FF0FD
:10A8C0000002CDF800800028EAD14FF04001204678
:10A8D00000F05DFA40B184F841700320C3E735F819
:10A8E000020BC0F30800E3E784F841700020BAE7E8
:10A8F0007047FEE72DE9F047224C82460027E078BA
:10A90000894601283CD14FF0000884F80380404676
:10A9100021781D4E04E0325C3A2A11D0401CC0B2AE
:10A920008842F8D3A1795046FEF7CEF861794846BF
:10A93000FEF7CAF870198578A81CC0B20A2105E094
:10A940000546EFE7B0FBF1F07F1CFFB20028F9D11C
:10A95000374407F11001788946BAAA1B4846521EAF
:10A96000FEF73BF807F10C0132465046FEF735F88A
:10A9700021780548FEF7CAF86571A67184F8008051
:10A98000BDE8F08720000020400200200748417801
:10A99000012909D181784A1C82700A2904D9012130
:10A9A000C1700021417081707047000020000020BC
:10A9B00030B587B014216846FEF7A8F82648002471
:10A9C000016841F004010160016801F00401059192
:10A9D000016841F080010160016801F0800105918A
:10A9E000016841F001010160016801F00101059178
:10A9F000016841F0020101600068184D00F002009A
:10AA00000590002220212846FFF734F94FF400502A
:10AA100000904FF40410CDE9010469461048FFF797
:10AA200033F84FF4C06000900220CDE90104032008
:10AA300003900720049069462846FFF725F8202058
:10AA400000900120CDE90104694628460394FFF7F0
:10AA50001BF807B030BD0000303802400000024053
:10AA600000080240FEE7FEE77047704710B5FFF7A9
:10AA70008DFFBDE81040FFF709B9000030B593B075
:10AA800034216846FEF742F814210DA8FEF73EF87F
:10AA900020480025016841F080510160006800F005
:10AAA000805012901C48016841F4404101600068E8
:10AAB000022400F440401290012000900004019014
:10AAC0008001CDE9064004200890B420CDE90904B6
:10AAD0000B9468460C94FFF7B1FA08B172B6FEE722
:10AAE000FFF770F908B172B6FEE70DA90F2081E8F3
:10AAF00031004FF4A05010904FF480501190052178
:10AB00000DA8FFF797F9002801D072B6FEE713B041
:10AB100030BD00004038024000700040024801682B
:10AB200041F470010160704788ED00E010B5806B62
:10AB30000021C185C184FFF762FC10BD01680C31A2
:10AB400051E8002F22F4907241E80023002BF5D148
:10AB50000168143151E8002F22F0010241E800237E
:10AB6000002BF5D1016B012909D101680C3151E8A5
:10AB7000002F22F0100241E80023002BF5D1202104
:10AB800080F8421000210163704708B590F8421028
:10AB9000222901D0022008BD82684FF480539A42D6
:10ABA00001D1016921B1816A9A421BD04AB10AE000
:10ABB0000268816A5268C2F308020A80816A891CAD
:10ABC00008E0026972B10268526802F07F020A70FE
:10ABD000816A491C8162C18D491E0904090CC18525
:10ABE00003D01BE002685268F1E70168CA6822F0EE
:10ABF0002002CA600168CA6822F48072CA600168D3
:10AC00004A6922F001024A61202180F842100021A5
:10AC10004163026B012A03D0FFF700FE002008BD4C
:10AC2000016301680C3151E8002F22F0100241E865
:10AC30000023002BF5D101680A68D20602D50A6804
:10AC400049680091818DFFF7D9FBE7E770B50446AD
:10AC500000680169E26821F44051114301612169F2
:10AC6000A068E26908436169114308432168CA6822
:10AC700049F20C639A430243CA6020684169A269A1
:10AC800021F440711143416131492068884202D06A
:10AC90003049884202D1FFF777F901E0FFF764F904
:10ACA000E2690023192164253226B2F5004F62685B
:10ACB00028D0A0FB0101930F9200FDF709FB01468C
:10ACC000B0FBF5F06FF01802504301EB800006EB8B
:10ACD0000010B0FBF5F000F0F002B1FBF5F002EB74
:10ACE0000012B1FBF5F06FF01803584301EB800040
:10ACF00006EB0010B0FBF5F000F00F0021681044E7
:10AD0000886070BDA0FB010192185B41FDF7E0FA7D
:10AD10000146B0FBF5F00201B1FBF5F06FF018034E
:10AD2000584301EB800006EBC000B0FBF5F000F0EB
:10AD3000F80002EB4002B1FBF5F0584301EB800054
:10AD400006EBC000B0FBF5F000F00700D6E700000E
:10AD5000001001400014014081628285C2850021FB
:10AD60004164222180F84210016921B10168CA685A
:10AD700042F48072CA6001684A6942F001024A6185
:10AD80000068C16841F02001C160002070472DE9D2
:10AD9000F843984617460D460446089E24E0701C6A
:10ADA00022D0FEF76DFFA0EB0800B0421AD8CEB15A
:10ADB0002068C168490717D5802D15D0402D13D0C4
:10ADC0000168C94309070FD4016800254068009055
:10ADD0002046FFF7B3FE0820606484F8405001204D
:10ADE000BDE8F8830320FBE72068006835EA00002F
:10ADF00004D00020B842D2D00020F1E70120F9E7CA
:10AE00000148FFF7FDBA000054000020FEE70907E3
:10AE1000090E002804DB00F1E02080F800147047E0
:10AE200000F00F0000F1E02080F8141D704730386A
:10AE30000A2801D2012070470020704710B5014652
:10AE40000348FDF799FD002800D0012010BD000047
:10AE5000DC010020064800680649884201D1012033
:10AE600070470549884201D1022070470020704791
:10AE700008ED00E000800008008002080849096829
:10AE8000C90706D0064980390968CA074FF06041F2
:10AE900001D1704700BF0A68002AFBD008707047D4
:10AEA000800E00E0084430F8080C7047012801D0FB
:10AEB0000148704701487047008000080080020880
:10AEC0004FF40030704700002DE9F041254C0D464D
:10AED00017462178E1B101462A462069FEF75DFC5C
:10AEE0000026002819D02069284420616069411992
:10AEF0006161002F15D026701BA0FDF761FAD4E91F
:10AF000005218A420FD0BDE8F04120A0FDF758BAD4
:10AF1000BDE8F04129A0FDF753BA31A0FDF750FA82
:10AF20002670BDE8F081FFF795FF0646FFF7BEFFEC
:10AF300005463046FFF7C4FF01466288284600F008
:10AF4000A1FB2EA0FDF73CFABFF34F8F38480168F4
:10AF5000384A01F4E06111430160BFF34F8F00BF35
:10AF6000FDE70000000000205B4F54415D2052656A
:10AF700063656976656420746F74616C20256C75F7
:10AF80002062797465732E0D0A0000005B4F5441F6
:10AF90005D2053697A65206D69736D617463683AE9
:10AFA00020657870656374656420256C752C206756
:10AFB0006F7420256C752E0D0A0000005B4F544104
:10AFC0005D204E6F204F54412073657373696F6E1F
:10AFD00020696E2070726F67726573732E0D0A00A0
:10AFE0005B4F54415D20466C6173682077726974D1
:10AFF00065206661696C65642E0D0A005B4F5441E3
:10B000005D204F54412075706461746520636F6DDD
:10B01000706C6574652E20526573657474696E6713
:10B020002073797374656D2E2E2E0D0A00000000BA
:10B030000CED00E00400FA052DE9F0410E468046D3
:10B04000FFF708FF04002CD0FFF730FF054620462D
:10B05000FFF736FF0746012C25D017A117A0FDF7F3
:10B06000AFF929461EA0FDF7ABF939462846FEF791
:10B070006DFB002819D02448012101700021866150
:10B08000C0E90451A0F8028020212048FDF73EFDD0
:10B09000012C0FD01EA12A46BDE8F0411DA0FDF7EE
:10B0A0008FB92AA002E01AA1D8E732A0BDE8F0418A
:10B0B000FDF786B900A1EEE7420000005B4F544166
:10B0C0005D204465746563746564206375727265A0
:10B0D0006E7420736C6F743A2025730D0A000000A3
:10B0E0005B4F54415D2045726173696E67206F74D8
:10B0F00068657220736C6F7420617420307825301D
:10B10000386C580D0A000000000000207401002077
:10B11000410000005B4F54415D204F544120737447
:10B1200061727465642E2057696C6C207772697443
:10B130006520746F20736C6F7420257320617420F8
:10B1400030782530386C580D0A0000005B4F5441B0
:10B150005D204552524F523A2043757272656E74AB
:10B1600020736C6F7420756E6B6E6F776E2E0D0A88
:10B17000000000005B4F54415D2045726173652003
:10B180006661696C65642E0D0A00000010B5FEF75B
:10B1900085FDFFF773FCFFF70BFC0B4809490C22F8
:10B1A00001604FF4E131416000218160C160C0E97C
:10B1B00004128161C161FFF75BFA002801D072B609
:10B1C000FEE710BD001001405400002010B5A2B0F1
:10B1D00023A0FDF7F5F8262229490FA8FDF742FC28
:10B1E000274CE08CADF86200A06A1990A08DADF8F4
:10B1F0006800E08DADF86A00206B1B90606B1C90BE
:10B20000092204F138011DA8FDF72CFC94F8410037
:10B210008DF87D0094F842008DF87E00606C2090DF
:10B220003C2212A96846FDF71DFC0FAC012094E8F2
:10B230000E00FDF7F5FF134CD4E90101FEF7F6F817
:10B24000E068FEF75DF80E484830FEF7A5F822B03A
:10B250000B49BDE8104048310BA0FDF7B1B8000024
:10B260003D3D3D205769466920496E697469616CAE
:10B27000697A6174696F6E203D3D3D0D0A000000E2
:10B2800054000020000000204C6F63616C20495086
:10B290003A2025730D0A0000FFF778FFFFF7DAFD6B
:10B2A0001E4C1F4D4FF40037012825D0022825D011
:10B2B0001CA0FDF785F800BFFFF7CCFD064601286E
:10B2C00023D0022E23D0002007463946FFF7EAFD9F
:10B2D00004461CA0FDF774F8012E1AD0022E1AD0D5
:10B2E00021A123A0FDF76CF8214627A0FDF768F8FF
:10B2F000FFF76CFF00F05EF8204600E02846394674
:10B3000040F2011200F0BEF9D6E72046DDE72846FC
:10B31000DBE726A1E5E726A1E3E7000000800008BF
:10B32000008002084572726F723A20556E6B6E6F24
:10B33000776E20736C6F74206465746563746564E4
:10B34000210D0A003D3D3D20556E6966696564200A
:10B350004669726D77617265205374617274203D25
:10B360003D3D0D0A00000000554E4B4E4F574E001C
:10B3700052756E6E696E6720696E20736C6F7420F3
:10B3800025730D0A0000000043757272656E74200B
:10B390006669726D776172652076657273696F6E2A
:10B3A0003A203078253034580D0A00004100000062
:10B3B00042000000ADF5C16D364D374F05F1640612
:10B3C0000024344933486431FFF794FA287838B1BF
:10B3D000304932A0FCF7F4FF64212E48FDF796FBBC
:10B3E000307800284ED02B492FA06431FCF7E8FFBD
:10B3F000284834A16430FDF7BFFAB8B1442168464B
:10B400001194FDF783FB23486B4611AA334964303E
:10B41000FDF774F96A4632A01199FCF7D1FF3C4858
:10B420006A4611994088FFF707FE26E0194839A1BE
:10B430006430FDF7A1FA00281FD04FF48061684600
:10B44000FDF764FB13480DF5C0636A4637A164300D
:10B45000CDF80046FDF752F9214642A0DDF800265E
:10B46000FCF7AEFFDDF8000608B1012200E0002283
:10B4700000210DF58060FFF727FD06486421643048
:10B48000FDF744FB20213846FEF7ECFB6420FEF775
:10B490003FFA96E7AC00002000000240546F70694C
:10B4A000633A2025730D0A00526563656976656409
:10B4B000204D515454207061796C6F61643A20259D
:10B4C000730D0A0022636F6D6D616E64223A224F24
:10B4D00054415F53544152542200000038B70008D1
:10B4E0004F54415F535441525420646574656374F2
:10B4F00065643A20667753697A65203D20256C752E
:10B500002C2068617368203D2025730D0A0000001F
:10B510000000002022636F6D6D616E64223A224F3D
:10B5200054415F4348554E4B220000007B22636F1D
:10B530006D6D616E64223A224F54415F4348554E0F
:10B540004B222C202264617461223A222531303250
:10B55000335B5E225D222C20226C617374223A25BB
:10B56000647D00004F54415F4348554E4B20646555
:10B570007465637465643A206368756E6B206C65EE
:10B580006E677468203D2025642C206C61737420E4
:10B59000666C6167203D2025640D0A002DE9F047A7
:10B5A00099461746884682460024089E1DE040467C
:10B5B000FDF7F4F905463846FDF7F0F92844C5B221
:10B5C0005046FDF7EBF9C1B24B462A46504600F013
:10B5D00037F84046FFF732FC01280BD03846FFF71A
:10B5E0002DFC012806D0641CE4B2B442DFD3002055
:10B5F000BDE8F0870120FBE72DE9F04717468846B4
:10B60000814600240D4D13E0A868FDF7C7F9C6B2C6
:10B610004846FDF7C3F9C1B243463246484600F0FA
:10B620000FF8A868FFF70AFC012804D0641CE4B2F4
:10B63000BC42E9D30020BDE8F087000020000020D4
:10B640002DE9F0410C4607461E46154664210C487C
:10B65000FDF75CFA0A486423224639464838FFF76A
:10B66000F7F8002809D162193346BDE8F0410449D2
:10B67000921CA1F14800FFF76BB8BDE8F081000013
:10B68000DC0100201CB544184FF4804154F8080D2B
:10B69000009060680190ADF800202046FEF756F853
:10B6A000002804D0082269462046FEF776F81CBD23
:10B6B00010B500290AD00878002807D0054878443A
:10B6C000FDF76AFD002801D0002010BD0248784433
:10B6D00010BD00006E010000660100004FF04070D8
:10B6E000E1EE100A704700000000000000000102B7
:10B6F00003040607080900000000010203043031BA
:10B700003233343536373839414243444546403088
:10B71000580030313233343536373839616263643A
:10B72000656640307800040000080000000000005A
:10B7300000020001000010007B22636F6D6D616EDE
:10B7400064223A224F54415F5354415254222C20D8
:10B7500022667753697A65223A25752C202266770E
:10B7600056657273696F6E223A22252A5B5E2C5DE4
:10B770002C202268617368223A222536345B5E22CF
:10B780005D2200003039373930343337383000002B
:10B790003139322E3136382E312E31320000000050
:10B7A000537765657420686F6D653632320000002E
:10B7B00053454E44204F4B0D0A0000004F4B0D0ADD
:10B7C000000000005749464920434F4E4E45435420
:10B7D00045440D0A5749464920474F542049500DCA
:10B7E0000A0000004552524F520D0A004F4B0D0AFD
:10B7F0005749464920444953434F4E4E4543540D03
:10B800000A0000004F4B0D0A3E2000003CB9000822
:10B8100000000020540000000082000890B90008D9
:10B8200054000020340900001C82000810010000B0
:10B8300043000000F8FFFFFF004040404040404010
:10B8400040404141414141404040404040404040F3
:10B850004040404040404040400502020202020297
:10B8600002020202020202020220202020202020E6
:10B8700020202002020202020202909090909090FA
:10B8800010101010101010101010101010101010B8
:10B89000101010100202020202028888888888882C
:10B8A0000808080808080808080808080808080818
:10B8B0000808080802020202400000000000000020
:10B8C0000000000000000000000000000000000078
:10B8D0000000000000000000000000000000000068
:10B8E0000000000000000000000000000000000058
:10B8F0000000000000000000000000000000000048
:10B900000000000000000000000000000000000037
:10B910000000000000000000000000000000000027
:10B920000000000000000000000000000000000017
:10B930000000000000000000000000000000020005
:10B94000A0B7000884B7000890B700080000000006
:10B9500000000000000000000000000000000000E7
:10B9600000000000BCB70008ECB70008C4B700082E
:10B97000B0B70008E4B7000804B80008F8B700083A
:10B980000100000010000000000000000024F4008E
:04000005080081C5A9
:00000001FF
